:020000040000fa
:080000000001040000000000f3
:020000040000fa
:10000800bc010000bc010000bc010000bc010000f4
:10001800bc010000bc010000bc010000bc010000e4
:10002800bc010000bc010000bc0100003e12000041
:10003800bc010000bc01000052120000bc0100001d
:10004800bc010000bc010000bc010000bc010000b4
:10005800bc010000bc010000bc010000bc010000a4
:10006800bc010000bc010000bc010000bc01000094
:10007800bc0100007a120000bc010000bc010000b5
:10008800bc010000bc010000bc010000fc12000023
:10009800bc010000bc010000bc010000bc01000064
:1000a800bc010000bc010000bc010000bc01000054
:1000b800bc010000bc0100008a130000bc01000064
:1000c800bc010000bc010000bc010000bc01000034
:1000d800bc010000bc010000bc010000bc01000024
:1000e800bc010000bc010000bc010000bc01000014
:0800f800bc010000bc01000086
:020000040000fa
:10010800bc010000bc010000bc010000bc010000f3
:10011800bc010000bc010000bc010000bc010000e3
:10012800bc010000bc010000bc0100003e12000040
:10013800bc010000bc01000052120000bc0100001c
:10014800bc010000bc010000bc010000bc010000b3
:10015800bc010000bc010000bc010000bc010000a3
:10016800bc010000bc010000bc010000bc01000093
:10017800bc0100007a120000bc010000bc010000b4
:10018800bc010000bc010000bc010000fc12000022
:10019800bc010000bc010000bc010000bc01000063
:1001a800bc010000bc010000bc010000bc01000053
:1001b800bc010000bc0100008a130000bc01000063
:1001c800bc010000bc010000bc010000bc01000033
:1001d800bc010000bc010000bc010000bc01000023
:1001e800bc010000bc010000bc010000bc01000013
:0801f800bc010000bc01000085
:020000040000fa
:100200000fbf20000e7f22000e01880000000000ba
:1002100000012000200288000c0007006034230049
:100220000100200011000700000020000000e00095
:100230000200320000000200000000001a1202005a
:10024000000000000040da000000fe004440a90069
:10025000600620000000e0000300320000002000e3
:10026000a00188004440a800000006009101880019
:10027000800078000000eb0015003700e2804000ad
:1002800032a0b4009101ba00e280400032a0b40074
:100290009102ba00e280400032a0b4000002eb00fc
:1002a000472bde00f507b200602ce10004003a00a5
:1002b0000059eb008301e900fdff3e000400370018
:1002c0006128e100010032000082eb000400070019
:1002d0001101ba000200e000e8ff3a000000060049
:1002e0003159ba008301e9000c0032002159ba00eb
:1002f0008301e900080032000400e00003003a0036
:10030000e280400032a0b400f5ff370011d9ba00f6
:100310008301e900faff3a008100e800e180400033
:1003200032a0b400000006008a160400000000009d
:10033000b6150400000000004a1b04000000000085
:10034000dc1a040000000000801a04000000000015
:10035000e816040000000000681904000000000016
:100360004218040000000000d01904000000000042
:100370006a320400000000000040da000000fe00c5
:10038000901c8800a11c880000000600e14f50006e
:1003900006003200e24f500006003200e04f5000ed
:1003a00009003a00701b800003003700f01a80003b
:1003b00001003700701a8000680060000000e9004a
:1003c0004f00de00000006000040eb0000000600c9
:1003d0000002eb008180fb0009003700e04f510074
:1003e0000300320065372000e14f51000100320068
:1003f0006538200065487a000402e8000000e80043
:10040000810f5200f5ff350000000600401bde00a2
:1004100007002000e1cf520008003200e2cf520076
:100420000a003200001b8800161b8800221b88006f
:100430000003eb008483fb0012003700801a880061
:10044000961a8800a21a8800f9ff3700001a88005f
:10045000161a8800221a8800f5ff37006035200040
:10046000e1cf52000400320060362000e2cf52009b
:1004700001003a006034200011707b000603e800a0
:100480008100e800870f5300f4ff35006f426200df
:10049000e1cf52000a003200e2cf520011003200d8
:1004a000e0cf520018003a006f0262004322dd00e4
:1004b00075f82f00261b8000868262001700370027
:1004c0006f0262004322dd0075f82f00a21a80003f
:1004d0008282620004827200a41a88005e63a8000f
:1004e000000006006f0262004322dd0075f82f0055
:1004f000261a80008682620004827200241a880014
:100500004e63a800000006006f0262004322dd0077
:1005100075f82f00221b8000828262000482720024
:10052000241b88006e63a80000000600889fbe00a0
:10053000401cde00090020000003fb00cfb3de00fa
:10054000e50f5300e08f5b001e003e0006600100d7
:1005500005003700070037000a0037000d0037009c
:1005600010003700130037000118880018188800a1
:100570001600370041188800581888006218880053
:10058000130037008118880098188800a218880086
:100590000f003700c1188800d8188800e2188800ba
:1005a0000b003700011988001819880022198800eb
:1005b000070037004119880058198800621988001f
:1005c00003003700011888001818880022188800d6
:1005d0004f04be0000000600401ade0005002000a7
:1005e000e04f500006003200e14f500004003a0096
:1005f000c1198800d4198800e2198800000006009b
:100600008119880094198800a2198800000006004a
:10061000801c880000000600e04f500004003200fb
:10062000e14f500002003a00f11b88000000060074
:10063000711c880000000600e14f500003003200ea
:10064000e24f500005003a0002003700f11a88001e
:1006500000000600711a880000000600711b880067
:100660000000060090228800a122880000000600f9
:10067000e14f500006003200e24f50000600320009
:10068000e04f500009003a0070218000030037005d
:10069000f0208000010037007020800068006000ba
:1006a0000000e9004f00de00000006000040eb0003
:1006b000000006000002eb008180fb00090037000b
:1006c000e04f51000300320065432000e14f51002c
:1006d000010032006544200065487a000402e80009
:1006e0000000e800810f5200f5ff35000000060011
:1006f000401bde0007002000e1cf5200080032005e
:10070000e2cf52000a003200002188001621880042
:10071000222188000003eb008483fb0012003700d5
:100720008020880096208800a2208800f9ff3700ea
:10073000002088001620880022208800f5ff37005e
:1007400060412000e1cf52000400320060422000ee
:10075000e2cf520001003a006040200011707b009f
:100760000603e8008100e800870f5300f4ff35001e
:100770006f426200e1cf52000a003200e2cf520025
:1007800011003200e0cf520018003a006f02620000
:100790004322dd0075f82f0026218000868262004a
:1007a000170037006f0262004322dd0075f82f004a
:1007b000a22080008282620004827200a42088004d
:1007c0001e64a800000006006f0262004322dd00e4
:1007d00075f82f0026208000868262000482720055
:1007e000242088000e64a800000006006f0262004a
:1007f0004322dd0075f82f002221800082826200f2
:1008000004827200242188002e64a80000000600e3
:10081000889fbe00401cde00090020000003fb0092
:10082000cfb3de00e50f5300e08f5b001e003e00fb
:100830000660010005003700070037000a00370096
:100840000d0037001000370013003700011e88002c
:10085000181e880016003700411e8800581e8800a8
:10086000621e880013003700811e8800981e8800d1
:10087000a21e88000f003700c11e8800d81e880005
:10088000e21e88000b003700011f8800181f880037
:10089000221f880007003700411f8800581f88006a
:1008a000621f880003003700011e8800181e8800a0
:1008b000221e88004f04be0000000600401ade0021
:1008c00005002000e04f500006003200e14f5000cc
:1008d00004003a00c11f8800d41f8800e21f88006e
:1008e00000000600811f8800941f8800a21f880056
:1008f000000006008022880000000600e04f500043
:1009000004003200e14f500002003a00f12188005b
:10091000000006007122880000000600e14f500030
:1009200003003200e24f500005003a000200370099
:10093000f1208800000006007120880000000600f9
:1009400071218800000006009623ef008760a9004f
:10095000c01c8800e7826000cc2add00f4ff28007c
:100960000605800006026200050272000405880088
:10097000e8806000c308de00e1806000cb08dd0095
:10098000f47f2f00750480000502620001027200ee
:1009900074048800000006005624ef0088c0a900f7
:1009a000c0228800e7826000c82add00f48f2f0093
:1009b00036058000060262000502720034058800d8
:1009c000e8806000c308de00e1806000c608dd004a
:1009d000f4fb2f0085048000050262000102720012
:1009e000840488000000060040118800311188004e
:1009f000000006000001eb00570007000400320071
:100a00000200200003f8230001f0a60032010700d5
:100a100000000600889fbe008a9fbe008c1f7800e1
:100a2000f2000700f900330003866c006450e10017
:100a30002e0032006420e100330032006150e100fa
:100a40002f0032006120e100310032008585550021
:100a5000eb07b00009002000080420000500370063
:100a60000804440089844c000a0031000603430056
:100a700087834b000001530081815b00f8ff330046
:100a80000203be000800a0000804440089844c0052
:100a9000f6ff3900c639dd00830173000100320022
:100aa000130020008904d1000884d3000998a30012
:100ab000050032000800a7000300a0008904d1004f
:100ac0000884d3008b05e8008904d1000884d30092
:100ad0000001eb000281d2008900070001f0a100b3
:100ae0000cf0a70001f0a000d10037006420e10065
:100af000d30032000801be000200be00f7ff37003d
:100b00006120e100ce0032006000b800f3ff370042
:100b10000000200001f82700f0ff3700839f6800e5
:100b20000100e00002003d0060001000e0801800bd
:100b30000300e00002003d0060011100e0811900a7
:100b4000d10007004f00e00002003b0060001000f1
:100b5000e080180000000600889fbe008a9fbe004b
:100b60000003be008c0007008505780082815200da
:100b7000020020006220e10004003a00f307b10007
:100b8000040035007718e100040035000600be00bf
:100b9000140037006000b8000f003700f50f200088
:100ba000faff2f008502d1000a85d3008301e900f6
:100bb000fcff3b008184620000046500890f740023
:100bc000f2ff32008582ea000a85ea008184620031
:100bd000000465004a00070007f0a70001f0a0002c
:100be0000081eb000200e0004f05be004f04be0094
:100bf0000000060014002000140137000001be00b0
:100c0000650007000470a70003f0a1006509b100aa
:100c1000160032000d0035006828e100060035009e
:100c2000f0ff2f00f1ff27000300e00013003b005e
:100c300001002800000005000000400081804800fd
:100c40008502e900fcff3a0008003700f88f4200f7
:100c500002003c008000eb00000005008100d10094
:100c60000080d3008502e800fcff3a000300e000aa
:100c700002003b0060001000e08018000000060049
:100c80000001be00440007000470a70003f0a100ab
:100c900003f8a30013003a006509b1001000320008
:100ca000090035006928e100020035000100280034
:100cb0000000050000004000818048008502e90036
:100cc000fcff3a0000000600f88f420005003500e6
:100cd0008100d1000080d3008502e800fcff3a00cb
:100ce000000006008000eb00000005004f89de00d8
:100cf00082017800f00037006011b800fe00370074
:100d000081002000618055000b003d000b00200099
:100d100061fe2f000100e1001d003400828171009e
:100d2000610164008904d1000884d3000000e80058
:100d3000faff3a00710020006100640003007000b7
:100d4000020060000900320061044400e0844c00ad
:100d50000988a500050032008b05e8006808e1005d
:100d600002003a008904d1000884d300f20f200069
:100d70000258e10005003d00c75ddd00f907b20043
:100d80008980750008007800000006000bf8270035
:100d90008b00780000000500c70ade00f107b200f2
:100da000f50fb20008003200e1cf4200020032002d
:100db0000170a00024000500810f700001003200c6
:100dc0000408050044000500810f700002003a008d
:100dd000140005008502e9000000400081c04800c1
:100de000fcff3b000170a000240005000004be00d1
:100df000e9ff07000003be000405be000200be00bc
:100e0000e5ff0700844f7500000006000200be00e9
:100e10006450e100050036006420e1000200360065
:100e20000968a30001003a000800be000160a000ac
:100e30004f0678004f05be004f04be0000000600bc
:100e4000f0ff2f00f1ff2700f9ff3700811f780026
:100e50000100e00002003d0060001000e08018008a
:100e60000300e00002003d0060011100e081190074
:100e7000150007004f00e00002003b00600010007a
:100e8000e0801800000006006022b8000602200082
:100e90000000d0008180d2000482d2008582d2007e
:100ea0000000a0000202520083825a0003003100b9
:100eb0000202420083824a000000a1000603e9000a
:100ec000f3ff3a0000000600efff07000400be0039
:100ed0000000060003f0a200889fbe008a9fbe00ab
:100ee0008c1f7800c1ff0700c8ff33006450e10089
:100ef0004f0032006420e1005200320003826c0097
:100f000007003b000905d0000306d000820f540003
:100f10000c065d00020039000200320089017800f1
:100f2000030678008582550004003d000003fd00a3
:100f30008103fd008502ea008b854200840f720068
:100f400002003b0060001000e08018006011b80053
:100f50000005eb007a28e1000a003900060078005d
:100f6000c75ddd00f707b200878075002d003700f0
:100f7000828171000a017800610560008180d100e2
:100f80000080d3008502e900f9ff3b000604400021
:100f90008784480002003b0060041400e0841c00c9
:100fa0000988a300070032008a81710082817100e4
:100fb000610164008904d1000884d3008b05e80036
:100fc000170037000978a30013003a000b00e00077
:100fd000130034008b05e9000804440089844c00a8
:100fe0000a4474000978a3000d003a000b00e000e9
:100ff000070034008b05e9000804440089844c0094
:1010000001003a000b0020000978a300f7ff32002e
:101010000001eb0002003700828171000a017800b4
:1010200037ff07000cf0a70001f0a00080ff370099
:101030006420e10002003a00838f6c0080ff3300df
:101040000801be000200be0079ff3700889fbe0085
:101050008a9fbe00841f780064ff07004f0078005d
:1010600011003300f0ff2f00838f6c0006003b005f
:10107000040565000a00a7000800370009f0a60073
:101080001000200008003700820f5400838f5c009e
:10109000030039001000200001003e000000200085
:1010a00009f0a7000000ea004f05be004f04be0093
:1010b0000000e00000000600881f780003047800ac
:1010c0000300e00007003d0060001000e080180011
:1010d00060011900e081190002003b0001f02d00c1
:1010e000030037000400070008f0a70001f0a0008b
:1010f0004f04780000000600889fbe008a9fbe0053
:101100000082700004027100048271002600320027
:101110000004be000200be006011b8006b09200090
:10112000950220000182cf000a0039000541b1007c
:101130000082cf00070039000541b1000982cf00cd
:10114000040039000541b1000882cf0001003900d8
:101150000541b10005425200120032000a003b0076
:1011600082817100610164008100d1000080d300a0
:101170008984d3000884d3008b05e8000442e8008a
:10118000f7ff3a00070037000804440089844c0048
:1011900000004800818048008b05e9000442e90016
:1011a000f9ff3a00d6fe07004f05be004f04be000f
:1011b000000006000002780002003700315a780073
:1011c0000201e900e00f5100fcff3a0000000600b8
:1011d0000002780084027800050278000043eb00ea
:1011e000b44f1300fbff3a0031427800845a780074
:1011f000e04f5200fcff3a000000060000027800b9
:101200008042eb00b4cf1200fdff3a000080ea00fc
:0812100000004200000006008e
:020000040000fa
:10121800646f00006e5f000061760000746f00006c
:101228005f31000000660000706b000031000000b4
:10123800763100002e300000003100002e30000012
:1012480000630000616e0000310000006c65000062
:10125800616400005f6300006f6e0000747200003c
:101268006f6c00006c650000720000006869000087
:10127800676800005f6500006467000065000000a3
:101288006c6f0000775f0000656400006765000010
:10129800007300005f7000006f6900006e7400004a
:1012a80032000000735f0000706f0000696e00007c
:1012b80074340000007300005f7000006f69000064
:1012c8006e74000036000000735f0000706f00004d
:0c12d800696e0000743800000000000087
:020000040000fa
:1012e4000200fa0081b2200010002200530a070015
:1012f400a1b2200020002200500a0700c1b2200041
:10130400300022004d0a070001b3200040002200f3
:101314004a0a070041b3200050002200470a070090
:101324000002eb00040f78000a0037001e02780068
:10133400c222dd0084b720008482420064002200bf
:101344001e02420085007800040078003b0a070072
:101354001e0fe8001e027800e70f5200f3ff34006e
:101364000002eb00040f78001d003700865980004e
:10137400975980001e027800c222dd0084b7200045
:10138400048242001402be000402530085825b0002
:101394001e037800c233dd0086b3200006834300b9
:1013a400048bbe001e027800c222dd0084b7200038
:1013b400048242001403be00a4598000b559800081
:1013c4000602420087824a001e037800c233dd0011
:1013d40086b5200006834300048bbe001e0fe80080
:1013e4001e027800e70f5200e0ff34000080fa008c
:1013f400000006000600fa00200798002e02900064
:101404006123b900f4ff2d00f5ff2f00060242000e
:1014140087824a00c600200007002000860f520081
:10142400878f5a000a013e00046001000c00370057
:101434000f00370012003700150037003b0037005b
:101444006300370076003700890037009c003700be
:10145400af003700c2003700d5003700e80037007e
:1014640081b2200010002200f4090700f8003700c0
:10147400a1b2200020002200f0090700f400370088
:10148400c1b2200030002200ec090700f000370050
:1014940001b3200040002200e80907000002eb002d
:1014a400040f78001d00370086598000975980008a
:1014b4001e027800c222dd0084b7200004824200ac
:1014c4001402be000402530085825b001e037800f0
:1014d400c233dd0086b3200006834300048bbe00c4
:1014e4001e027800c222dd0084b72000048242007c
:1014f4001403be00a4598000b559800006024200be
:1015040087824a001e037800c233dd0086b52000be
:1015140006834300048bbe001e0fe8001e02780001
:10152400e70f5200e0ff3400c900370041b3200048
:1015340050002200c10907000002eb0014079800c4
:101544001f00370086598000975980001e029000c2
:10155400c222dd0084b72000048242001402be00cf
:101564000402530085825b001e039000c233dd0039
:1015740086b3200006834300048bbe001e02900045
:10158400c222dd0084b72000048242001403be009e
:10159400a4598000b55980000602420087824a009f
:1015a4001e039000c233dd0086b52000068343008d
:1015b400048bbe001e0290000402e8001407980089
:1015c4001e029000e70f5200deff3400a000370037
:1015d40081b7200060002200980907008659800026
:1015e40097598000c45b8000d55b800004025300df
:1015f40085825b00c4598800d5598800c65b800089
:10160400d75b8000a4598000b559800006024200cf
:1016140087824a00c45a8800d55a88008c00370053
:10162400c1b7200070002200840907008659800099
:1016340097598000e45b8000f55b8000040253004e
:1016440085825b00e4598800f5598800e65b8000d8
:10165400f75b8000a4598000b5598000060242005f
:1016640087824a00e45a8800f55a880078003700d7
:1016740001b820008000220070090700865980000c
:1016840097598000045c8000155c800004025300bc
:1016940085825b00045a8800155a8800065c800025
:1016a400175c8000a4598000b559800006024200ee
:1016b40087824a00045b8800155b88006400370059
:1016c40041b82000900022005c0907008659800080
:1016d40097598000245c8000355c8000040253002c
:1016e40085825b00245a8800355a8800265c800075
:1016f400375c8000a4598000b5598000060242007e
:1017040087824a00245b8800355b880050003700dc
:1017140081b82000a00022004809070086598000f3
:1017240097598000445c8000555c8000040253009b
:1017340085825b00445a8800555a8800465c8000c4
:10174400575c8000a4598000b5598000060242000d
:1017540087824a00445b8800555b88003c00370060
:10176400c1b82000b0002200340907008659800067
:1017740097598000645c8000755c8000040253000b
:1017840085825b00645a8800755a8800665c800014
:10179400775c8000a4598000b5598000060242009d
:1017a40087824a00645b8800755b880028003700e4
:1017b40001b92000c00022002009070086598000da
:1017c40097598000845c8000955c8000040253007b
:1017d40085825b00845a8800955a8800865c800064
:1017e400975c8000a4598000b5598000060242002d
:1017f40087824a00845b8800955b88001400370068
:1018040041b92000d00022000c090700865980004d
:1018140097598000a45c8000b55c800004025300ea
:1018240085825b00a45a8800b55a8800a65c8000b3
:10183400b75c8000a4598000b559800006024200bc
:1018440087824a00a45b8800b55b88000000000022
:101854000080fa00000006000800fa002007980043
:10186400310798006022b800048fbe006022b800df
:10187400048fbe000400370014002000050020007f
:101884001e0f42005e974a002e029000be02900096
:101894001e03be00840f5300858f5b00f6ff3500e6
:1018a4000080fa00000006000e00fa0040079800cd
:1018b40051079800620798006e029000eb02420004
:1018c4000042eb00844a78000042eb00044f7800a9
:1018d400a4002000140798004e029000de0290003d
:1018e400e00f5200e08f5a0008003a001e029000f8
:1018f400ee0290008482420004c3b300844a78005c
:101904001e0290000402e900140798004e029000a1
:10191400de029000e00f5200e08f5a0029003d00e3
:101924004e029000de02900060021200e0821a0073
:10193400440798005507980000c2eb00044f780054
:10194400200037004e029000de0290002407980029
:10195400350798002e029000be029000a2002000dd
:10196400030020000400be0037fd07000002be0093
:1019740024079800350798001e029000ee0290009c
:10198400848242002e029000044278000443b00096
:10199400844a78001e0290000402e90014079800ab
:1019a4004e029000de029000a200200003002000fe
:1019b4000400be0058fc07000002be004407980063
:1019c400550798004e029000de029000e00f52008e
:1019d400e08f5a00dbff3c001e427800e14f4200da
:1019e40008003a001e029000ee0290008482420039
:1019f400d4c2b300844a78001e0290000402e900b5
:101a0400140798001e0290000402e8000400780005
:101a14000080fa00000006000800fa001007980091
:101a240021079800320798000e8fe8001e02780004
:101a340014427800be029000844a78003e0290006e
:101a44008402e8001e02e80014427800844a780008
:101a54003e0290008482e8001e82e800144278006e
:101a6400844a78003e029000e30242001e0378009c
:101a74006302430014427800844a78000080fa002c
:101a8400000006000000fa000002eb0024088800b1
:101a9400240880000440a0000450a000240888000a
:101aa40004a62e0014088800a404800004c0a0002a
:101ab40004d0a10004e0a100a40488008460a9006b
:101ac4008c60a80005e1a8000080fa000000060070
:101ad4000000fa000002eb008408880084088000fb
:101ae4000440a0000450a00084088800842520003d
:101af40064088800b40480000480a0000490a0005e
:101b040004a0a100b404880084c0a9008cc0a8006b
:101b140011e1a8000080fa00000006000000fa00ad
:101b24000002eb00f4088800f40880000440a000e0
:101b34000450a000f4088800c4242100d4088800bc
:101b4400f40480000440a1000450a1000460a0003b
:101b5400f404880086a0a9008ea0a8001fe1a800b4
:101b64000080fa00000006000400fa000002eb0006
:101b7400040f78000002eb0014079800e4c2a900e7
:101b8400e4e2a900e502a800007d20000100200095
:101b940031ff0700c4032900040f7800f4fb2d0073
:101ba400140798009e0090001e0078008dfb07002b
:101bb4000080fa00000006000200fa00000f78001e
:101bc4008740a9004511800004402000048262007f
:101bd400e00f5200030032001e0278005411880006
:101be40004003700f40f20001e0262005411880024
:101bf400000000003411800062026200e00f520015
:101c0400fcff3a000000000035048000044020007e
:101c140004826200e00f5200fbff32005411800086
:101c2400040f78000080fa00000006000000fa00ab
:101c340026c2a9000002eb00541188000000000035
:101c44003411800061026200e00f5200fcff320098
:101c54003411800061026200e00f52000c00320077
:101c640026c2a900451180000440200004826200bd
:101c7400e00f520003003200541180000442780047
:101c8400040037005411800004427800010037003a
:101c940000c2eb00044078000080fa000000060057
:101ca4000000fa00e582a900afff07000080fa00f7
:101cb400000006000000fa00e582a900e982a900fc
:101cc40060002000bcff0700e582a900e982a800ab
:101cd4000080fa00000006000800fa0010079800cf
:101ce4002107980032079800f2ff0700e582a90057
:101cf400e982a90020002000afff07001e02900027
:101d04004822de0004007800abff07009e0290002a
:101d1400f40f20000482620004007800a6ff07008c
:101d24000002eb00040f7800080037001e02780060
:101d3400ae02900004824200144278000402fb00c8
:101d4400040078009cff07001e0fe8003e0290008c
:101d54009e027800848f5200f4ff3500e582a900ca
:101d6400e982a8000080fa00000006000800fa00da
:101d7400881f780010079800210798003207980000
:101d8400e582a900e982a900300020008aff07004b
:101d94001e0290004822de000400780086ff07003f
:101da4009e029000f40f2000048262000400780078
:101db40081ff07000002eb00040f780007003700e2
:101dc4001e027800ae0290000484420097ff0700d0
:101dd40000427800044c78001e0fe8003e02900098
:101de4009e027800848f5200f5ff3500e582a90039
:101df400e982a8004f0478000080fa000000060081
:101e04000200fa00e582a900e982a900500020003e
:101e140069ff070085ff070000427800044f78003f
:101e2400e582a900e982a8001e42780004407800f7
:101e34000080fa00000006000600fa000e82e800a6
:101e440042002000840078000000eb00c7ff070078
:101e54000e8fe8001e0278001402be000400be00cb
:101e64000080fa0000000600a600fa00210f070017
:101e740094e6260065062000048fbe0074c0b300fb
:101e840044479800e4002000340798000042eb0027
:101e9400044f980064024700640242000400780082
:101ea400d5fc070000027800e4024700e482420007
:101eb40004824200b2002000c1902800040078008f
:101ec400bbfc07000042eb00245798006402470063
:101ed4006e02420004007800c7fc0700000278008c
:101ee400e4024700ee8242000482420052002000d5
:101ef4007191280004007800adfc07000042eb005b
:101f0400645798006402470072024200040078009b
:101f1400b9fc070000027800e4024700f2824200a4
:101f24000482420052002000c1912800040078007d
:101f34009ffc07000042eb00245f98006402470006
:101f44007602420004007800abfc0700000278002f
:101f5400e4024700f682420004824200420020006c
:101f6400119228000400780091fc07000042eb0065
:101f7400545f98006402470079024200040078002c
:101f84009dfc070000027800e4024700f982420049
:101f9400048242005200200051922800040078007c
:101fa40083fc070064024700030220000401780058
:101fb400f10020000e0078000e06070000027800f1
:101fc400e00f520002003a000042eb001501370016
:101fd400540020000500200034179800451798008d
:101fe400e4f6260045562600541798006517980015
:101ff400f49526004506200074179800051f9800e4
:10200400650220008e824200a40220000e024200db
:10201400430020000501780001012000040078003d
:10202400f405070014002000050020003417980070
:10203400451798002403200004024700a5922800b5
:102044000f000900355a7800650220008e82420094
:10205400240320000e024200430020000501780002
:102064003100200004007800e2050700843e2000cf
:102074000500200034179800451798002404200018
:102084000e0242001636260037562700068abe0086
:10209400640242002617260037962700068abe00ef
:1020a400640242008042eb00054a78000402e80022
:1020b400650220008e824200240420000e024200a9
:1020c400430020000501780001012000040078008d
:1020d400c805070004352c000500200034179800bb
:1020e40045179800b404200004024700a593280073
:1020f40009000900355a7800650220008e824200ea
:10210400b40420000e0242004300200005017800c0
:102114000101200004007800b605070004f722003e
:10212400c5ff2f0034179800451798005405200068
:10213400040247004594280008000900355a780035
:10214400650220008e824200540520000e024200e7
:1021540043002000050178000101200004007800fc
:10216400a4050700046a280015002000341798000d
:1021740045179800e40520000e02420036f72500ba
:1021840007f72600068abe006402420096e626008f
:1021940047172300068abe00640242008042eb0017
:1021a400054a78000402e800650220008e8242009d
:1021b400e40520000e0242004300200005017800df
:1021c40001012000040078008a05070004352c0072
:1021d4000500200034179800451798007406200065
:1021e40004024700d594280008000900355a7800f5
:1021f400650220008e824200740620000e02420016
:10220400430020000501780001012000040078004b
:102214007805070004c4290005002000341798003d
:1022240045179800040720000e02420036f72500e7
:1022340007f72600068abe006402420096e62600de
:1022440047372300068abe00640242008042eb0046
:10225400054a78000402e800650220008e824200ec
:10226400040720000e02420043002000050178000c
:1022740001012000040078005e05070004532700d4
:102284000500200034179800451798009407200093
:10229400040247006595280008000900355a7800b3
:1022a400650220008e824200940720000e02420044
:1022b400430020000501780001012000040078009b
:1022c4004c05070004e224000500200034179800a0
:1022d40045179800240820000e02420036f7250016
:1022e40007f72600068abe006402420096e626002e
:1022f40047572300068abe00640242008042eb0076
:10230400054a78000402e800650220008e8242003b
:10231400240820000e02420043002000050178003a
:102324000101200004007800320507000471220036
:10233400050020003417980045179800b4082000c1
:1023440004024700f595280008000900355a780072
:10235400650220008e824200b40820000e02420072
:1023640043002000050178000101200004007800ea
:102374002005070084382100050020003417980048
:1023840045179800440920000e02420036f7250044
:1023940007f72600068abe006402420096e626007d
:1023a40047772300068abe00640242008042eb00a5
:1023b400054a78000402e800650220008e8242008b
:1023c400440920000e024200430020000501780069
:1023d4000101200004007800060507006022b8000f
:1023e4003417980045179800d409200004024700c8
:1023f4008596280008000900355a780065022000f7
:102404008e824200d40920000e02420043002000c4
:10241400050178000101200004007800f50407009c
:1024240014c0b300044078000080fa0000000600e5
:102434000400fa00000f7800110798000060fe0005
:10244400c510070016fe070087fe0700a4fb07005f
:102454002b080700910807009dfd0700affd07004a
:10246400301007000060fe0000242400f10020006a
:10247400f9fc0700fbff37003400f800881f7800e0
:1024840008002000a80188004f0478000000fa002a
:102494008460a9000080fa003400f90000400600be
:1024a4003600f800809fbe00829fbe00849fbe005d
:1024b400869fbe003400f80000002000a0018800c0
:1024c4000000fa0084c0a9003d0907009a0907002a
:1024d4000080fa003400f9004f03be004f02be0032
:1024e4004f01be004f00be003600f9000040060058
:1024f4003600f800809fbe00829fbe00849fbe000d
:10250400869fbe003400f80000002000a00188006f
:102514000a00fa0086a0a90062024700030009002d
:10252400001aeb00bd1007000042780004c2ea0064
:1025340024479800e01007000042780004c2ea0033
:10254400344798000d100700004278004447980073
:102554000a10070000427800544798000040eb003e
:102564008e100700004278006447980010c0b30042
:102574008a100700004278007447980020c0b30016
:102584008610070000427800044f980030c0b30062
:102594008210070000427800144f9800044820007d
:1025a400040f7800445980001e0f42000e82e80098
:1025b40022c0b300840078001e0078009e08070043
:1025c400be4290002e42900085407800044078007e
:1025d4008b0a07000080fa003400f9004f03be00a4
:1025e4004f02be004f01be004f00be003600f9008e
:1025f400004006003600f800809fbe00829fbe00a7
:10260400849fbe00869fbe003400f80000002000b6
:10261400a00188000a00fa008760a9009603a900b7
:102624009623a900841c80006e026200ee0f520003
:1026340002003a0096c3a9002d003700041c800054
:102644004222de00f57f200005026200040f7800bc
:102654000e82e800040078009509070045598000bf
:1026640004602000048242009e0f520005003a00dc
:102674000e82e80012002000840078001e0078001a
:10268400fb0007000e82e800840078001e0078003a
:10269400b60e07000e82e800840078001e00780061
:1026a400570b07000e82e800840078001e007800b3
:1026b400c00b07000e82e800840078001e0078003a
:1026c400680c0700645f80000402e800645f88000f
:1026d400645f8000f20f520003003a00f40e07001a
:1026e4000002eb00645f88008ee3a9007ee3a9008a
:1026f4000080fa003400f9004f03be004f02be0010
:102704004f01be004f00be003600f9000040060035
:102714003600f800809fbe00829fbe00849fbe00ea
:10272400869fbe003400f80000002000a00188004d
:102734000a00fa0088c0a9005604a9005624a9007a
:10274400842280006e026200ee0f520002003a0002
:1027540056c4a90014003700042280004222de007f
:10276400f57f200005026200040f78000e82e80065
:1027740004007800570907004559800004602000d0
:10278400048242009e0f520005003a000e82e800c7
:1027940022002000840078001e007800b4000700a6
:1027a4004ee4a9003ee4a9000080fa003400f900d8
:1027b4004f03be004f02be004f01be004f00be00db
:1027c4003600f900004006000800fa00204798008f
:1027d400314798002207980063479800744798008f
:1027e4002e4290000482fb004822dd000408b00061
:1027f400040f78003e4290000482fb001e0f42004a
:102804007e429000e14f520005003a006e41900074
:10281400ae0090001e00780007080700040037008f
:102824006e419000ae0090001e007800330807004f
:102834000080fa00000006000800fa002047980013
:1028440021079800624798007347980004582000b5
:10285400040f78002e4290000482fb001e0f4200f9
:102864007e429000e14f520005003a006e41900014
:10287400ae0090001e007800ef0707000400370048
:102884006e419000ae0090001e0078001b08070007
:102894000080fa00000006002c00fa00600f980087
:1028a400710f9800021798001317980024179800c6
:1028b4003517980046179800276f980044598000f0
:1028c400044f78006402470003000900001aeb007b
:1028d4007c024700140798001e02900014427800fe
:1028e400444798001e0290000402e8001442780055
:1028f400544798001e0290000482e80014427800b5
:1029040064479800040220000e0242001407980055
:102914001e02900014427800744798001e02900032
:102924000402e80014427800044f98001e0290004c
:102934000482e80014427800144f9800e40247002f
:102944000efa970023c0b300050178009e4078007a
:1029540010c0b3009cff07006c024700030009008d
:10296400001aeb002e1290000402ea0024179800cb
:10297400440220000e024200140798001e02900038
:1029840014427800444f98001e0290000402e800ac
:1029940014427800544f98002e1290000402ea006a
:1029a40024179800440220000e02420014079800e5
:1029b4001e02900014427800644f98001e0290009a
:1029c4000402e80014427800744f98006402200066
:1029d4000e024200140798001e0290001442780070
:1029e400045798001e0290000402e8001442780084
:1029f40014579800840220000e0242001407980025
:102a04001e02900014427800245798001e02900081
:102a14000402e8001442780034579800ec0247009e
:102a24000efa970013c0b300050178009e407800a9
:102a340020c0b30064ff07007402470003000900cc
:102a4400001aeb002e6a900044579800f4024700e5
:102a54000efa97008041eb00050178009e40780053
:102a640030c0b30058ff07000080fa0000000600e1
:102a74000600fa00000f78001107980042479800fa
:102a8400047820009e02620004602000848f5200bb
:102a940032003a004e4290000440780026ebb70022
:102aa40004712200545f88001e0290009442780052
:102ab40004c4b30084cf520004003a00a468210087
:102ac4001e00900004000100250037001e02900043
:102ad400144278008402fb00040f20008482620008
:102ae40004022000848f520004003a00645b210039
:102af4001e00900004000100190037001e0290001f
:102b0400144278008402fb00040e20000482620058
:102b1400e00f520004003a00a4b421001e0090000b
:102b2400040001000e0037001e0290009442780059
:102b340004c6b30084cf5200050032001e02900088
:102b44009442780004c7b30084cf520004003a00d2
:102b5400c4ad2100040001000100370000000000a2
:102b64000080fa00000006001600fa00200f98000a
:102b740044598000044f78002e0a900063024200fa
:102b840014427800144798002e0a90000402e800ca
:102b9400144278008402fb002e0a90000482e800ac
:102ba400144278000402fb004822dd000482420043
:102bb400140798002e0a9000144278008402fb0047
:102bc400340f20008482620004022000848f5200ab
:102bd40023003a001e029000145988001e429000ff
:102be4000482fb00245988002e0a900064024200eb
:102bf400144278000402fb00045988000002eb0030
:102c0400445f880004c6b300444f98002e0a900025
:102c14000402e80014427800544f98002e0a9000f1
:102c24000482e80014427800644f98002e0a900051
:102c34006302420014427800744f980064b220008a
:102c440014427800ec024700844178000041eb0014
:102c5400850078001e407800f7fe07002a00370040
:102c64001e4290000482fb00e20f52000300320077
:102c7400e40f52000a003200230037002e0a9000ad
:102c84006402420042002000840078001e0090008c
:102c9400900407001e009000d6f9070004003700d6
:102ca40004a821002e089000040001000000000088
:102cb40004c6b300444798002e0a90000402e800ba
:102cc40014427800544798002e0a90000482e800c9
:102cd40014427800644798002e0a90006302420070
:102ce400144278007447980064b2200014427800bb
:102cf400e4024700844178000041eb00850078003d
:102d04001e407800ccfe07000080fa000000060098
:102d14000600fa00200798002e0290006302420089
:102d240014427800044f78002e0290000402e80058
:102d3400144278008402fb002e0290000482e80012
:102d4400144278000402fb004822dd0004824200a1
:102d5400140798009e02900004002200848f520001
:102d640004003a00846e21002e009000040001004b
:102d7400140037009e4278000582fb00e20f5200e7
:102d840008003200e40f52000a003200e10f520042
:102d94000c003a00849621002e00900004000100eb
:102da40008003700248421002e0090000400010054
:102db40004003700049d21002e009000040001004f
:102dc400000000000080fa00000006003a00fa004b
:102dd400401f980044598000044f98000e02780068
:102de4000403b00003000900001aeb004e1a90001f
:102df4000402e800144278008402fb004e1a90009a
:102e04000482e800144278000402fb004822dd003a
:102e140004824200540798004e1a90006302420054
:102e2400144278000402fb00640798006e02470015
:102e3400840078005e0090008003070000027800a0
:102e4400140798001e029000e00f5200890032001f
:102e54004e1a90000402e800144278001477980097
:102e64004e1a90000482e8001442780024779800f7
:102e74004e1a90006302420014427800347798009e
:102e84006e0290000500200066002000070020006c
:102e9400860f5200878f5a0038003e0004600100fc
:102ea400060037000b003700110037001700370009
:102eb4001d0037002300370029003700b4c4b300d5
:102ec400047798006e0f4700140020001407980040
:102ed4002a003700b4c4b300047798006e02470098
:102ee400048fe80024002000140798002300370012
:102ef40014c4b300047798006e024700640f4200c4
:102f0400a4002000140798001c00370034c4b30048
:102f1400047798006e0247006e0f420044002000c0
:102f2400140798001500370034c4b30004779800e0
:102f34006e024700720f42004400200014079800fc
:102f44000e00370074c4b300047798006e02470083
:102f5400760f420034002000140798000700370061
:102f640034c4b300047798006e024700790f42001e
:102f74004400200014079800000000008e729000a6
:102f840014c4b30084cf52001d003a001e02900006
:102f940004427800447798000042eb00547798008c
:102fa4000002eb00240798000002eb0024079800bd
:102fb4000a0037002e0290001e02420014427800dc
:102fc4002e03900085a5200085024300844a7800e2
:102fd4002e0290000402e80024079800ae0290003c
:102fe4001e029000848f5200f2ff39000002eb00b1
:102ff400445f88001e0290000459880013003700c3
:103004000002eb00340798000002eb00340798003c
:103014000a0037003e029000e40242003e029000a3
:103024001e02420014427800850247008472980010
:103034003e0290000402e80034079800be029000ab
:103044001e029000848f5200f2ff390064b2200007
:1030540014427800050320008e82420084417800e7
:103064000041eb00850078000e489000f2fd070057
:1030740001003700000000000080fa000000060094
:10308400ac00fa00509798004459800044479800d7
:103094006c02470003000900001aeb005e929000e6
:1030a4000402e800144278008402fb005e9290005f
:1030b4000482e800144278000402fb004822dd0088
:1030c40004824200340798003e0090006b0307001e
:1030d40000027800044f98007402470084007800ce
:1030e4003e009000d50207000002780054079800c3
:1030f4005e029000e00f5200710032005e92900078
:103104000402e80014427800544f98005e92900044
:103114000482e80014427800644f98005e929000a4
:103124006302420014427800744f98005e029000db
:10313400e40f52001e00360014c4b300444f98003c
:103144005e02900004427800045798005e029000ea
:103154004822de0004427800145798000002eb0075
:10316400040f78000002eb00040f7800070037001a
:10317400740247001e0242001442780085a5200014
:103184009e824200844a78001e0fe8009e02780066
:103194005e029000848f5200f5ff39000002eb00bc
:1031a400445f88005e029000045988003b003700a9
:1031b4000e4a90000402fb006123b900d4ff2f00e3
:1031c400f5ff2f000602420087824a00d600200045
:1031d40007002000860f5200878f5a001b003e0014
:1031e400046001001300370018003700170037008f
:1031f40013003700150037000b00370013003700a9
:103204001200370011003700100037000f0037009c
:103214000e0037000d0037000000370074c4b300ff
:10322400444f98000900370034c4b300444f980059
:1032340006003700b4c4b300444f980003003700bd
:10324400b4c4b300444f9800000000000002eb0037
:10325400140798000002eb00140798000b003700d5
:103264001e029000e4024200740347001e02900014
:10327400040243001442780085024700c44a9800bf
:103284001e0290000402e800140798009e029000b9
:103294005e029000848f5200f1ff390064b2200076
:1032a40014427800ec024700844178000041eb00ae
:1032b400850078004e4090005ffd07000100370054
:1032c400000000000080fa00000006001000fa0070
:1032d4007007980044598000044f78007e029000e3
:1032e4000402e800144278008402fb007e0290008d
:1032f4000482e800144278000402fb004822dd0046
:1033040004824200140798001e009000db020700ac
:1033140000027800444798004e429000e14f42007a
:103324001b003200b4c4b300544798007e029000de
:103334000402e80014427800644798007e0290007a
:103344000482e80014427800744798007e029000da
:103354006302420014427800044f98004e429000e9
:10336400144f98000042eb00244f980064b22000f0
:1033740014427800e5024700844178000041eb00e4
:10338400850078001e4078002bfd070001003700ff
:10339400000000000080fa00000006002e00fa0081
:1033a4006017980044598000044f78006500470076
:1033b400070009000058eb006e1290000402e800b8
:1033c400144278008402fb006e1290000482e8002c
:1033d400144278000402fb004822dd00048242000b
:1033e400140798006d024700840078001e009000c6
:1033f4004802070000027800444798004e429000bb
:10340400e04f52003a0032006e1290000402e800cd
:1034140014427800644798006e1290000482e80019
:1034240014427800744798006e12900063024200c0
:1034340014427800044f98004e429000e44f52002a
:1034440010003e0045c0b3004e42900004c252003a
:10345400250020000522dd003444b00054479800c4
:103464005e4a9000144f98006e4a9000244f9800d2
:103474007e4a9000344f98000e529000444f9800ba
:103484001200370014c4b300544798004e42900011
:10349400144f98000042eb00244f98000042eb00c8
:1034a4000440780058eab7006d02470084007800b1
:1034b40080a5200045f707000002eb00445f880068
:1034c4004e4290000482fb000459880064b220003c
:1034d40014427800e5024700844178000041eb0083
:1034e400850078001e407800d3fc070001003700f7
:1034f400000000000080fa00000006000c00fa0042
:10350400500798005e0290000402e800144278001c
:103514008402fb005e0290000482e80014427800fa
:103524000402fb004822dd000482420014079800d4
:103534005e029000144278000402fb006c026200f8
:1035440042a2de00444798000002eb00040f78001a
:10355400070037001e02780064024200de02900079
:103564000482420014427800544798001e0fe80079
:103574004e4290000482fb00640212009e0f52002f
:10358400f4ff3c004e4290000482fb0064021200ef
:10359400840247000042eb00d442980065024700d1
:1035a400840078001e0090009a0207000080fa0050
:1035b400000006000c00fa004459800024479800db
:1035c4006402470003000900001aeb00445f800016
:1035d400e802420004598000848f52001000360033
:1035e40014c0b30044479800445f800084427800cc
:1035f400045980000442780004c252006742420029
:10360400344798004e429000844278003e42900035
:103614000442420004c242004447980002003700ba
:103624000042eb004447980014002000040f780087
:103634000a003700455f800084a520000482420010
:1036440014427800640347001e034300044b7800cf
:103654000502e800445f88001e0fe8001e0278009f
:10366400e70f5200f3ff340064b2200014427800e4
:10367400e4024700844178000041eb0085007800b3
:103684002e4090006cfc07000080fa000000060049
:103694001200fa00000f98004459800014079800a3
:1036a4000002eb00040f78000e0a90001442780028
:1036b4000402fb006102620004427800e04f520001
:1036c4002e0032000e0a9000144278000402fb001f
:1036d4006e0262000482d100444798000c00370057
:1036e400455f80001e0278000402e8000e0b900083
:1036f400040243001442780086a520000683420099
:10370400044b78000502e800445f88001e0fe800bf
:103714004e4290000482fb00670212009e0f52008a
:10372400efff3c0005598000145980000501780022
:1037340081a5200004007800e601070014598000e8
:10374400040078002bf707000f003700455f800066
:103754001e0278000402e8000e0b900004024300ed
:103764001442780086a5200006834200044b7800aa
:103774000502e800445f88001e0fe8001e0278007e
:10378400e60f5200f1ff340024b220003407980001
:1037940004c6b300044f98003e029000144278001f
:1037a400144f98003e0290000402e800144278008e
:1037b400244f98002459800004427800344f980024
:1037c40064b2200014427800844278001e02900003
:1037d4000442780068034700854178000041eb000b
:1037e400860078000440780013fc07000080fa008b
:1037f400000006004000fa00889fbe00401f9800a9
:10380400217f9800621f9800731f9800720247007e
:1038140004007800af0807002e7a9000246f980007
:10382400b3020700000278000402e800341798008d
:103834007e1a9000050020000400be002df507004c
:103844000004be002e5a90000482fb00cfa2de00ca
:103854000400be0024f507000002be000401be00ff
:103864000800be006af407000002be004407980086
:10387400550798004e009000de0090005cf40700ad
:103884000002be0044079800550798004e009000bf
:10389400de009000f9f407000002be000442780044
:1038a400044078000d09070000027800040f780036
:1038b4001e027800e10f420002003a000042eb00d1
:1038c400a00037001e027800441798000002eb00a5
:1038d40014079800110037002e5a90008482fb00d0
:1038e4001e02900004aab90004027800ee1a9000a7
:1038f40004824200840078001e007800e909070071
:103904001e007800aa08070000027800040f78005f
:103914001e0290000402e800140798001e029000a2
:10392400cfa2de000400be00eff407000002be00d8
:1039340018c0b3004e019000de0190000400be00e8
:10394400abf4070000027800e00f520001003500dc
:103954000044eb00e04f5400dfff3a001e0907006b
:1039640000027800240798002e029000e10f420024
:1039740002003a000042eb00720037004e1890003b
:103984001df6070000027800e30f52000e003e000f
:103994000042eb0024679800240220000e0242003b
:1039a400ce1890000400780008f6070024022000d6
:1039b4000e024200840078002e00900040090700a7
:1039c40014c0b3005f003700f4c0b300246798004c
:1039d4004e18900008f60700000278000402e80080
:1039e400050020000400be00c2f407000004be006d
:1039f4003e5a90000482fb00cfa2de000400be0009
:103a0400b9f407000002be000401be000800be00b5
:103a1400fff307000002be006407980075079800d2
:103a24006e009000fe009000f1f307000002be005b
:103a34000400be0070f407000002be000402780017
:103a440064179800c40220000e024200040f98007c
:103a54000e0a900014427800346798000e0a900011
:103a64000402e80014427800446798000042eb0026
:103a740054679800240220000e024200840078005b
:103a84002e0090000e0907000002eb0014079800b6
:103a9400270037003e5a90000482fb00ae029000db
:103aa40004824200240798000002eb0034079800c7
:103ab400120037003e5a90008482fb001e029000e0
:103ac40004aab900840278003e02900004824200f5
:103ad400ce1a90000482420014427800e6022000cc
:103ae4000e034300be02900085024300844a78001e
:103af4003e0290000402e800340798003e5a900009
:103b04008482fb003e029000848f5200e9ff3c0057
:103b1400e40220000e024200840078002e0090008f
:103b2400e70807001e0290000402e800140798004a
:103b34009e0290006e129000848f5200d5ff3900cf
:103b440014c0b300044078004f04be000080fa00a3
:103b5400000006002400fa00101798000042eb0051
:103b6400644798006802470004007800d9070700fa
:103b74001e1090002102070000027800140798002c
:103b840078024700840078001e009000d9080700de
:103b94007e0a900004007800770807000e5a90000f
:103ba400ef4f52001c003a001e5a90008402fb00a2
:103bb4002e5a90000402fb00048242004822dd00d9
:103bc4002407980014002000040f78000e0037002a
:103bd4001e5290008482fb001e02780004aab900e1
:103be40004027800840278001e02900004824200dd
:103bf400e6024700120020008500780004007800e7
:103c040035f807001e0fe8002e0290000402e800b9
:103c14009e0f5200eeff3c00660247001200200097
:103c2400840078001e0090002bf80700be080700ef
:103c3400044078000080fa00000006002400fa0026
:103c440000179800111798006602470004007800d6
:103c5400a00707000e109000e8010700000278009a
:103c6400240798002e029000e10f420002003a005f
:103c74000002eb002400370076024700840078003d
:103c84002e0090009b0807006e0a9000040f780035
:103c94000002eb00140798006e4a90008482fb0037
:103ca4001e02900004aab900040278009e1290003b
:103cb40004824200840078001e0078001209070084
:103cc4001e007800ba07070000027800040f78008d
:103cd4001e027800e10f420007003a001e02900025
:103ce4008402e8006e4a90000482fb0004aab90032
:103cf40004027800040037001e0290000402e80069
:103d040014079800e4ff3700040078000080fa00ec
:103d1400000006003000fa00601798007117980040
:103d240068024700040078006a0707006e109000dc
:103d3400b201070000027800240798002e029000c8
:103d4400e10f420002003a000042eb004800370055
:103d540078024700840078002e0090006508070070
:103d64000e5a9000ef4f520036003a001e5a90004f
:103d74008402fb002e5a90000402fb004822dd005e
:103d8400048242003407980014002000040f7800d5
:103d9400270037001e5290008482fb001e02780028
:103da40004aab900840278002e0290000482420022
:103db400250220008e8242008500780004007800ed
:103dc4004c0807000002eb001407980012003700ab
:103dd4009e02e9001e5290000482fb0004aab9006e
:103de400840278001e02900004824200fe129000b9
:103df40084824200260220000e0343001e0290002b
:103e04000402430014427800844a78001e029000a1
:103e14000402e800140798001e5290008482fb00fc
:103e24001e029000848f5200e9ff3c001e0fe80040
:103e34003e0290000402e8009e0f5200d5ff3e00af
:103e440007003700fe1290000042eb00844a78001d
:103e540078024700840078007e109000dbf40700ad
:103e64007e109000e4f40700000278000442780019
:103e7400044078000080fa00000006001e00fa00ea
:103e8400600f98000e82e800040078001107070014
:103e94006e0890005901070000027800040f7800b2
:103ea4001e027800e10f420002003a0000c2eb005b
:103eb4000500370072024700840078001e00780075
:103ec4000c0807002e5a9000044078000080fa0085
:103ed400000006002a00fa00889fbe002017980000
:103ee40031179800421798006a02470004007800ce
:103ef400f80607002e109000400107000002780029
:103f0400240798007a024700840078002e0090006d
:103f1400f80707000e129000040f78004e1290006c
:103f2400050020000400be0072f307000004be0078
:103f34002e5290000482fb00cfa2de000400be00db
:103f440069f307000002be000401be000800be00c1
:103f5400aff207000002be0034079800450798003e
:103f64003e009000ce009000a1f207000002be00c7
:103f740034079800450798000002eb0014079800e6
:103f8400110037002e5290008482fb001e02900024
:103f940004aab90004027800be1290000482420010
:103fa400840078001e0078003e0807001e00780098
:103fb400ff06070000027800040f78001e0290003c
:103fc4000402e800140798001e029000cfa2de004d
:103fd4000400be0044f307000002be0018c0b30092
:103fe4003e019000ce0190000400be0000f30700e3
:103ff40000027800e00f5200010035000044eb009d
:10400400e04f5400dfff3a004f04be000080fa0086
:10401400000006003e00fa00889fbe00501f980072
:10402400611f98007202470004007800a906070087
:104034000042eb00246798005e189000ef00070030
:104044000002780044079800440220000e02420057
:10405400840078004e009000a60707004e6290008e
:10406400ef4f52001d003a005e6290008402fb0094
:104074006e6290000402fb00048242004822dd00cc
:104084005407980014002000040f78000f00370034
:104094003e5a90008482fb001e02780004aab900f4
:1040a40004027800840278004e02900004824200e8
:1040b400250220008e824200120020008500780034
:1040c4000400780004f707001e0fe8005e02900069
:1040d4000402e8009e0f5200edff3c002402200081
:1040e4000e02420012002000840078004e0090006e
:1040f400f9f607008c07070037070700000278006d
:10410400140798001e029000e10f420002003a00da
:104114000042eb00720037006e18900036f407007e
:1041240000027800e30f52000e003e000042eb0054
:1041340044679800440220000e024200ee189000ea
:104144000400780021f40700440220000e0242001b
:10415400840078001e0090005907070014c0b300c3
:104164005f003700f4c0b300446798006e189000f5
:1041740021f40700000278000402e8000500200092
:104184000400be00dbf207000004be003e5a9000ab
:104194000482fb00cfa2de000400be00d2f20700be
:1041a4000002be000401be000800be0018f20700b1
:1041b4000002be0064079800750798006e00900026
:1041c400fe0090000af207000002be000400be00d8
:1041d40089f207000002be000402780074179800f8
:1041e400e40220000e024200040f98000e0a900020
:1041f40014427800546798000e0a90000402e80004
:1042040014427800646798000042eb0074679800d9
:10421400440220000e024200840078001e00900038
:10422400270707000002eb00240798002700370047
:104234003e5a90000482fb009e02900004824200d9
:10424400140798000002eb003407980012003700ae
:104254003e5a90008482fb002e02900004aab9000a
:10426400840278003e02900004824200ee1a90001c
:104274000482420014427800060320000e03430027
:10428400be02900085024300844a78003e029000fa
:104294000402e800340798003e5a90008482fb0030
:1042a4003e029000848f5200e9ff3c00040320008a
:1042b4000e024200840078001e00900000070700f0
:1042c4002e0290000402e80024079800ae02900039
:1042d4007e129000848f5200d5ff390014c0b300c1
:1042e400044078004f04be000080fa00000006007d
:1042f4002000fa006602470004007800f505070074
:104304000002eb00040f7800be0290004e02900001
:104314000482420014079800250037001e02900012
:10432400f60247008500780004007800f1060700d3
:104334006e529000e04f5200260032005e0a900058
:104344009e0f5200020036005e0a9000040f7800af
:104354006e529000ef4f520010003a007e529000cf
:104364008402fb000e5a90000402fb004822dd0088
:1043740004824200240798007e4a90008482fb0055
:104384002e02900004aab900840278001e02900054
:104394000482420014079800000000007e4a900046
:1043a4000482fb009e0290000482420014079800dd
:1043b4009e0290003e0390004e02900004034300ce
:1043c4005e02900004024300848f5200d3ff390040
:1043d40001003700000000001e027800e00f5200c8
:1043e40002003a00f4ff2100010037001e027800a9
:1043f400040078000080fa00000006002200fa00a1
:10440400001798006602470004007800b105070011
:104414000082eb00040f7800be0290004e02900070
:104424000482420014079800270037001e029000ff
:10443400f60247008500780004007800ad06070006
:10444400de0a90000e129000848f520003003a009e
:104454001e029000040f7800250037006e52900071
:10446400ef4f520010003a007e5290008402fb008d
:104474000e5a90000402fb004822dd000482420030
:10448400240798007e4a90008482fb002e0290004c
:1044940004aab900840278001e029000048242003b
:1044a40014079800030037006e529000e04f52004a
:1044b4000e0032007e4a90000482fb009e029000af
:1044c40004824200140798009e0290003e0390006c
:1044d4004e029000040343005e0290000402430075
:1044e400848f5200d1ff3900010037000000000022
:1044f4001e027800040078000080fa000000060024
:104504000400fa0000c0200040f007000000000092
:10451400841c80004522de00674262000482fb00a6
:10452400e30f5200faff3400815b200020002000da
:1045340092ef0700a1ff2f003000200001f10700d7
:1045440044598000cfa2de00048fbe006011b80081
:10455400012020000040eb00f3ef07006011b800d9
:10456400113e20000040eb001af007000460200018
:10457400050020003e034200ae834a00047c200074
:104584000500200006007800070378008403780003
:1045940005027800070060000402630005002000a3
:1045a400c022dd00040020000403be006102b80044
:1045b4000403730085837300423add00ce32de00cb
:1045c400850272004232dd0004007800046020009d
:1045d400050020003e034200ae834a000602be00ee
:1045e400422bdd00ce23de00870373004223dd006f
:1045f40086027800f40f2000048262000402700036
:1046040084027800c4ff2100048262006011b800b3
:104614008400780010c0b300c3ef07006011b80035
:10462400d1ff210010c0b300eaef070031002000e1
:104634000040eb00ffef0700410020000040eb00ca
:10464400f4ef07003100200010c0b300f9ef0700b9
:104654004100200010c0b300eeef0700310020003d
:1046640020c0b300f3ef07004100200020c0b300d6
:10467400e8ef070000802a00e4ef070000000000d4
:10468400851c8000040e200004826200e00f5200aa
:10469400fbff3a000080fa00000006000400fa0064
:1046a40000c0200092f00700000000008422800077
:1046b4004522de00674262000482fb00e30f5200e1
:1046c400faff3400815b200020002000e4ef0700a3
:1046d400a1ff2f0030002000aef0070044598000f5
:1046e400cfa2de00048fbe006011b800016020007c
:1046f4000040eb0045f007006011b80011ff2100f5
:104704000040eb006cf0070004602000050020006e
:104714003e034200ae834a00047c200005002000d2
:104724000600780007037800840378000502780007
:10473400070060000402630005002000c022dd00c1
:10474400040020000403be006102b80004037300e7
:1047540085837300423add00ce32de0085027200aa
:104764004232dd00040078000460200005002000cf
:104774003e034200ae834a000602be00422bdd0027
:10478400ce23de00870373004223dd008602780017
:10479400f40f200004826200040270008402780096
:1047a400c4ff2100048262006011b8008400780014
:1047b40010c0b30015f007006011b800d1ff21004c
:1047c40010c0b3003cf00700310020000040eb00b3
:1047d40051f00700410020000040eb0046f00700c4
:1047e4003100200010c0b3004bf00700410020004e
:1047f40010c0b30040f007003100200020c0b30017
:1048040045f007004100200020c0b3003af0070043
:1048140000802a0036f00700000000008522800096
:10482400040e200004826200e00f5200fbff3a00f5
:104834000080fa00000006000a00fa002007980031
:1048440031079800024f98000e4a90008482fb00c2
:10485400c4bb20000482420094427800254798009b
:104864000e489000240107000e4a90008482fb0049
:104874002e4290008483fb002e0390006a2ab90024
:10488400040278000702420084024200048f2000e0
:1048940004824200060a78000002eb00040f78004c
:1048a400110037000e4a90008482fb002e429000d3
:1048b4008483fb001e0278003e0390000402430040
:1048c400144378006a2ab9000402780007024200ff
:1048d4004322dd009e024200048020000482420044
:1048e400064a78001e0fe8001e027800e70f520007
:1048f400ecff34000080fa00000006000a00fa0011
:104904002007980031079800024f98000e4a900043
:104914008482fb0054bc200004824200944278004c
:10492400254798000e489000540107000e4a900055
:104934008482fb002e4290008483fb002e039000af
:104944006a2ab90004027800070242008402420085
:10495400c4a1200004824200060a78000002eb0091
:10496400040f7800110037000e4a90008482fb0087
:104974002e4290008483fb001e0278003e039000c8
:1049840004024300144378006a2ab9000402780040
:10499400070242004322dd009e024200c49220002e
:1049a40004824200064a78001e0fe8001e027800c6
:1049b400e70f5200ecff34000080fa00000006000c
:1049c4001000fa000002eb00040f780053003700d7
:1049d4001e02780004427800044078000a010700af
:1049e40000427800e04f52004a003a000000000004
:1049f4001e027800044278000440780062ee07004a
:104a040000427800e04f5200f9ff320094bb2000ce
:104a14001e02420014427800444798004e4290001f
:104a24000403fb001e0278006a22b9000402780025
:104a34000602420084024200048f200004824200e5
:104a440014027800340798000002eb001407980061
:104a5400130037004e4290000403fb001e0278004e
:104a64006a22b9000402780006024200c322dd0073
:104a74001e029000848242000480200004824200ce
:104a840014427800680347009e02900085024300a8
:104a9400844a78001e0290000402e800140798007b
:104aa4001e029000e70f5200eaff34001e02780055
:104ab40004427800e80347003e039000057c200090
:104ac40085026300452bdd00be0290004228dd0014
:104ad400f50f20008502600005037300c58f2f00c9
:104ae400050363008442780084c0b3008700780023
:104af400825f2000030020000600780042ee0700d9
:104b04001e02780004427800044078009c000700ec
:104b140001003700000000001e0fe80054bb200015
:104b2400144278000482fb009e0f5200a8ff3c0050
:104b34000080fa00000006001000fa000002eb00fa
:104b4400040f7800530037001e02780004427800f6
:104b5400044078000d01070000427800e04f520045
:104b64004a003a00000000001e0278000442780067
:104b740004407800bdee070000427800e04f520088
:104b8400f9ff320024bc20001e02420014427800c7
:104b9400444798004e4290000403fb001e02780034
:104ba4006a22b9000402780006024200840242002c
:104bb400c4a1200004824200140278003407980043
:104bc4000002eb0014079800130037004e429000d7
:104bd4000403fb001e0278006a22b9000402780074
:104be40006024200c322dd001e02900084824200bd
:104bf400c4922000048242001442780068034700f3
:104c04009e02900085024300844a78001e029000b0
:104c14000402e800140798001e029000e70f5200f7
:104c2400eaff34001e02780004427800e8034700db
:104c34003e039000057c200085026300452bdd00c7
:104c4400be0290004228dd00f50f200085026000be
:104c540005037300c58f2f000503630084427800a9
:104c640084c0b30087007800825f20000300200026
:104c7400060078009dee07001e02780004427800ca
:104c8400044078009f000700010037000000000086
:104c94001e0fe80054bb2000144278000482fb007d
:104ca4009e0f5200a8ff3c000080fa00000006009e
:104cb4000200fa00000f78001e0278000041eb00a9
:104cc40081c0b30004007800c0ed07000080fa0042
:104cd400000006000200fa00000f78001e027800af
:104ce4000041eb0081c0b3000400780070ee0700bf
:104cf4000080fa00000006000200fa00004f78006d
:104d04001e4278008482fb00c4bb2000048242005f
:104d1400144278000442e800c6bb200086824200a8
:104d2400844a78001e4278008482fb00c4bb2000c1
:104d3400048242009442780044bb2000144278006c
:104d440084cf52000c0039001e4278008482fb009c
:104d5400c4bb2000848242000042eb00844a7800f5
:104d64001e4278008482fb0064bb200084824200df
:104d740014c0b300844a78000080fa0000000600e2
:104d84000200fa00004f78001e4278008482fb0083
:104d940094bb200004824200144278000442e800dc
:104da40096bb200086824200844a78001e42780026
:104db4008482fb0094bb2000048242009442780069
:104dc40044bb20001442780084cf52000c00390008
:104dd4001e4278008482fb0094bb2000848242003f
:104de4000042eb00844a78001e4278008482fb0073
:104df40064bb2000848242000042eb00844a7800b5
:104e04000080fa00000006000200fa00004f78005b
:104e14001e4278008482fb0064bb200004824200ae
:104e240014427800e14f520002003a000042eb00c5
:104e34000f0037001e4278008482fb0094bb2000e0
:104e440004824200944278001e4278000483fb00ee
:104e5400c4bb2000040243001442780084cf5200f3
:104e6400020031000042eb000100370014c0b3001f
:104e7400044078000080fa00000006000200fa00f6
:104e8400004f78001e4278008482fb0054bc20004e
:104e940004824200144278000442e80056bc200018
:104ea40086824200844a78001e4278008482fb0095
:104eb40054bc2000048242009442780044bb200089
:104ec4001442780084cf52000c0039001e4278004e
:104ed4008482fb0054bc2000848242000042eb0028
:104ee400844a78001e4278008482fb00f4bb2000d0
:104ef4008482420014c0b300844a78000080fa001f
:104f0400000006000200fa00004f78001e427800fc
:104f14008482fb0024bc20000482420014427800f6
:104f24000442e80026bc200086824200844a7800bd
:104f34001e4278008482fb0024bc200004824200cc
:104f44009442780044bb20001442780084cf52007d
:104f54000c0039001e4278008482fb0024bc20002f
:104f6400848242000042eb00844a78001e427800aa
:104f74008482fb00f4bb2000848242000042eb00e8
:104f8400844a78000080fa00000006000200fa005b
:104f9400004f78001e4278008482fb00f4bb20009e
:104fa4000482420014427800e14f520002003a00a9
:104fb4000042eb000f0037001e4278008482fb00a1
:104fc40024bc200004824200944278001e427800ef
:104fd4000483fb0054bc2000040243001442780004
:104fe40084cf5200020031000042eb000100370080
:104ff40014c0b300044078000080fa0000000600ea
:105004000c00fa00204f9800314f98002e4a90006f
:105014000482ea00244f98002e4a90006142620004
:10502400344798002e4a9000624262004447980038
:105034002e4a900064426200544798002e4a900021
:1050440068426200644798002e4a900070426200f1
:10505400744798002e4a90000444b200044f98000c
:105064003e4a90000482ea00344f98003e4a900081
:10507400624f62003e4a9000644262001447980006
:105084003e4a900068426200244798003e4a9000dd
:1050940070426200144f98001e429000e04f52008c
:1050a4003e003a004e429000e04f52003b00320076
:1050b40004be200014427800e04f520008003a0079
:1050c40024be200014427800e04f520033003a001e
:1050d40034be200014427800e04f52002f003a0002
:1050e4005e429000e04f52001000320024be2000c7
:1050f40014427800e04f520004003a0034be20000d
:1051040014427800e04f52001a003c0024be2000f4
:1051140014427800e04f520004003a0034be2000ec
:1051240014427800e04f52001200320024be2000e6
:1051340014427800e04f52001800340034be2000be
:1051440014427800e04f520014003a001e427800e6
:10515400e04f520007003a007e429000e04f5200b8
:105164000e00320014be200014427800e04f5200ba
:105174000a003a0044be200014427800e04f520076
:10518400060032002100200020002000ac050700aa
:1051940014c0b300044f7800050037008000eb0012
:1051a40020002000a60507000042eb00044f780011
:1051b4001e427800e04f52003e003a003e4290000a
:1051c400e04f52003b00320014be2000144278002d
:1051d400e04f520008003a0024be20001442780038
:1051e400e04f520033003a0034be200014427800ed
:1051f400e04f52002f003a006e429000e04f520000
:105204001000320024be200014427800e04f520007
:1052140004003a0034be200014427800e04f5200eb
:105224001a003c0024be200014427800e04f5200d3
:1052340004003a0034be200014427800e04f5200cb
:105244001200320024be200014427800e04f5200c5
:105254001800340034be200014427800e04f52009d
:1052640014003a001e429000e04f520007003a003a
:105274007e429000e04f52000e00320004be200037
:1052840014427800e04f52000a003a0044be200065
:1052940014427800e04f5200060032004100200022
:1052a400400020006605070014c0b30014479800ae
:1052b400050037008000eb00400020006005070077
:1052c4000042eb00144798001e427800e04f520061
:1052d40003003a001e429000e04f52001d003200cd
:1052e40024be200014427800e04f520004003a002b
:1052f40034be200014427800e04f52000b003c0002
:105304000e4a9000e04f52001200320054be2000ba
:1053140014427800e04f52000e00320064be2000b8
:1053240014427800e04f52000a00320044be2000cc
:1053340014427800e04f5200060032008100200041
:10534400800020003e05070014c0b30024479800e5
:10535400050037008000eb008000200038050700be
:105364000042eb00244798002e429000e04f520088
:10537400060032001e427800e04f52000f003a004f
:105384001e429000e04f52000c003a0004be200080
:1053940014427800e04f52001200320014be200084
:1053a40014427800e04f52000e00320074be200018
:1053b40014427800e04f52000a00320044be20003c
:1053c40014427800e04f5200060032000101200030
:1053d400000120001a05070014c0b300144f980000
:1053e400050037008000eb000001200014050700d1
:1053f4000042eb00144f98000080fa000000060001
:105404000a00fa003007980041079800be02900095
:10541400047820008482620004282000848f5200d3
:1054240061003a000002eb00140798004e0290005d
:105434000482e80014427800844278004e0290000e
:10544400630242001442780045479800544798008c
:1054540064024700140798003e0290006302620051
:10546400e10f520003003a001e029000140278007b
:10547400745d88003e02900063026200e20f5200f5
:1054840003003a001e02900014027800845d880034
:105494003e02900063026200e30f520003003a00f0
:1054a4001e02900014027800945d88000002eb0054
:1054b400040f7800130037001e02780084024200b3
:1054c400e4ba20000482420014027800e00f520083
:1054d4000b003d001e02780084024200e4ba200062
:1054e40004824200140278008402ea001e0278005a
:1054f40004034200e4ba200004024300050a7800d1
:105504001e0fe8001e027800e20f5200eaff34008a
:10551400755d8000441f2000848f520004003c000d
:10552400855d8000441f2000848f520010003400e9
:10553400755d8000441f2000848f520004003c00ed
:10554400955d8000441f2000848f520008003400c1
:10555400855d8000441f2000848f52000b003c00b6
:10556400955d8000441f2000848f520007003c009a
:105574000042eb0004407800e7ebb7008000eb004a
:1055840000022000ae0407000800370014c0b30076
:1055940004407800e7ebb70001022000000220007d
:1055a400a704070001003700000000000080fa0093
:1055b400000006000600fa00100798002107980072
:1055c4009e02900004782000848262000438200047
:1055d400848f5200a0003a002e02900014427800fa
:1055e40004cfea0094b92000144278000440780003
:1055f4009aebb70084b92000144278000440780084
:1056040099ebb7009e42780061c2620004407800c2
:1056140098ebb70095b920009542780084b9200032
:105624001442780084cf52000600320085b920006d
:1056340095427800a4b920001442780084cf520027
:1056440005003a0084b92000144278000440780030
:10565400e0ebb7000a003700a5b9200095427800b6
:1056640094b920001442780084cf520004003a0018
:1056740094b920001442780004407800e0ebb700ad
:10568400c4b9200014427800044078009debb700b0
:10569400b4b9200014427800044078009cebb700b1
:1056a4009e42780062c26200044078009bebb7001f
:1056b400c5b9200095427800b4b92000144278009e
:1056c40084cf520006003200b5b92000954278001c
:1056d400d4b920001442780084cf520005003a0067
:1056e400b4b920001442780004407800e1ebb7001c
:1056f4000a003700d5b9200095427800c4b92000cb
:105704001442780084cf520004003a00c4b9200047
:105714001442780004407800e1ebb700f4b92000ab
:105724001442780004407800a0ebb700e4b92000ec
:1057340014427800044078009febb7009e42780042
:1057440068c26200044078009eebb700f5b92000ff
:1057540095427800e4b920001442780084cf5200c6
:1057640006003200e5b920009542780004ba200012
:105774001442780084cf520005003a00e4b92000b6
:105784001442780004407800e2ebb7000a003700c6
:1057940005ba200095427800f4b92000144278003c
:1057a40084cf520004003a00f4b920001442780077
:1057b40004407800e2ebb70024ba200014427800d9
:1057c40004407800a3ebb70014ba20001442780018
:1057d40004407800a2ebb7009e42780070c26200d9
:1057e40004407800a1ebb70025ba20009542780068
:1057f40014ba20001442780084cf5200060032000c
:1058040015ba20009542780034ba2000144278007a
:1058140084cf520005003a0014ba200014427800e4
:1058240004407800e3ebb7000c00370035ba2000e1
:105834009542780024ba20001442780084cf5200a4
:1058440006003a0024ba200014427800044078008c
:10585400e3ebb70001003700000000000080fa000d
:10586400000006000600fa001007980021079800bf
:105874009e02900004782000848262000448200084
:10588400848f52007d003a001e029000670262007d
:10589400e70f52007a003a002e029000144278007a
:1058a40004cfea0054ba200014427800044078007f
:1058b400a6ebb70044ba20001442780004407800f4
:1058c400a5ebb7009e42780061c2620004407800f4
:1058d400a4ebb70055ba20009542780044ba2000e2
:1058e4001442780084cf52000600320045ba2000ea
:1058f4009542780064ba20001442780084cf5200a4
:1059040005003a0044ba20001442780004407800ac
:10591400e4ebb7000a00370065ba2000954278002e
:1059240054ba20001442780084cf520004003a0094
:1059340054ba20001442780004407800e4ebb70025
:1059440084ba20001442780004407800a9ebb70020
:1059540074ba20001442780004407800a8ebb70021
:105964009e42780062c2620004407800a7ebb70050
:1059740085ba20009542780074ba20001442780059
:1059840084cf52000600320075ba20009542780098
:1059940094ba20001442780084cf520005003a00e3
:1059a40074ba20001442780004407800e5ebb70094
:1059b4000a00370095ba20009542780084ba200086
:1059c4001442780084cf520004003a0084ba2000c4
:1059d4001442780004407800e5ebb700b4ba200024
:1059e4001442780004407800acebb700a4ba20005d
:1059f4001442780004407800abebb7009e42780074
:105a040064c2620004407800aaebb700b5ba200073
:105a140095427800a4ba20001442780084cf520042
:105a240006003200a5ba200095427800c4ba2000ce
:105a34001442780084cf520005003a00a4ba200032
:105a44001442780004407800e6ebb7000c003700fd
:105a5400c5ba200095427800b4ba200014427800f8
:105a640084cf520006003a00b4ba200014427800f1
:105a740004407800e6ebb7000100370000000000a6
:105a84000080fa00000006001000fa000401200063
:105a9400040f7800445f20001407980004e12000fc
:105aa4002407980084be20003407980044c0b30043
:105ab400044f980094c0b300144f980002012000d2
