:020000040000fa
:080000000001040000000000f3
:020000040000fa
:10000800bc010000bc010000bc010000bc010000f4
:10001800bc010000bc010000bc010000bc010000e4
:10002800bc010000bc010000bc010000bc010000d4
:10003800bc010000bc010000bc010000bc010000c4
:10004800bc010000bc010000bc010000bc010000b4
:10005800bc010000bc010000bc010000bc010000a4
:10006800bc010000bc010000bc010000bc01000094
:10007800bc0100003a1b0000bc010000bc010000ec
:10008800bc010000bc010000bc0100006c1b0000aa
:10009800bc010000bc010000bc010000bc01000064
:1000a800bc010000bc010000bc010000bc01000054
:1000b800bc010000bc010000bc010000bc01000044
:1000c800bc010000bc010000bc010000bc01000034
:1000d800bc010000bc010000bc010000bc01000024
:1000e800bc010000bc010000bc010000bc01000014
:0800f800bc010000bc01000086
:020000040000fa
:10010800bc010000bc010000bc010000bc010000f3
:10011800bc010000bc010000bc010000bc010000e3
:10012800bc010000bc010000bc010000bc010000d3
:10013800bc010000bc010000bc010000bc010000c3
:10014800bc010000bc010000bc010000bc010000b3
:10015800bc010000bc010000bc010000bc010000a3
:10016800bc010000bc010000bc010000bc01000093
:10017800bc0100003a1b0000bc010000bc010000eb
:10018800bc010000bc010000bc0100006c1b0000a9
:10019800bc010000bc010000bc010000bc01000063
:1001a800bc010000bc010000bc010000bc01000053
:1001b800bc010000bc010000bc010000bc01000043
:1001c800bc010000bc010000bc010000bc01000033
:1001d800bc010000bc010000bc010000bc01000023
:1001e800bc010000bc010000bc010000bc01000013
:0801f800bc010000bc01000085
:020000040000fa
:100200000f8d20000e7f22000e01880000000000ec
:1002100000012000200288000c000700a0d6210069
:100220000100200011000700000020000000e00095
:100230000200320000000200000000002a1b020041
:10024000000000000040da000000fe004440a90069
:10025000000020000000e000030032000000200049
:10026000a00188004440a800000006009101880019
:10027000800078000000eb0015003700e2804000ad
:1002800032a0b4009101ba00e280400032a0b40074
:100290009102ba00e280400032a0b4000002eb00fc
:1002a000472bde00f507b200602ce10004003a00a5
:1002b0000059eb008301e900fdff3e000400370018
:1002c0006128e100010032000082eb000400070019
:1002d0001101ba000200e000e8ff3a000000060049
:1002e0003159ba008301e9000c0032002159ba00eb
:1002f0008301e900080032000400e00003003a0036
:10030000e280400032a0b400f5ff370011d9ba00f6
:100310008301e900faff3a008100e800e180400033
:1003200032a0b400000006005e09040000000000d6
:10033000b8080400000000002c09040000000000c0
:10034000000e040000000000980d040000000000f2
:100350003c0d040000000000bc0904000000000087
:10036000300c040000000000100b0400000000002e
:10037000920c0400000000000040da000000fe00c3
:10038000901c8800a11c8800000006000002eb0001
:100390008180fb0009003700e04f5100030032006c
:1003a00065372000e14f5100010032006538200020
:1003b00065487a000402e8000000e800810f52005e
:1003c000f5ff350000000600401bde00070020009e
:1003d000e1cf520008003200e2cf52000a003200a2
:1003e000001b8800161b8800221b88000003eb00fe
:1003f0008483fb0012003700801a8800961a880058
:10040000a21a8800f9ff3700001a8800161a88001f
:10041000221a8800f5ff370060352000e1cf520036
:100420000400320060362000e2cf520001003a00a2
:100430006034200011707b000603e8008100e800b2
:10044000870f5300f4ff35006f426200e1cf520086
:1004500003003200e2cf520013003a0009003700d7
:10046000ef026200c32add00a61a800074f82f0094
:100470000402630005027200a41a88005e63a800eb
:1004800000000600ef026200c32add00261a800089
:1004900074f82f000402630005027200241a880019
:1004a0004e63a80000000600ef026200c32add00d0
:1004b000261b800074f82f000402630005027200fe
:1004c000241b88006e63a80000000600889fbe0001
:1004d000401cde00090020000003fb00cfb3de005b
:1004e000e50f5300e08f5b001e003e000660010038
:1004f00005003700070037000a0037000d003700fd
:100500001000370013003700011888001818880001
:1005100016003700411888005818880062188800b3
:10052000130037008118880098188800a2188800e6
:100530000f003700c1188800d8188800e21888001a
:100540000b0037000119880018198800221988004b
:10055000070037004119880058198800621988007f
:100560000300370001188800181888002218880036
:100570004f04be0000000600401ade000500200007
:10058000e04f500006003200e14f500004003a00f6
:10059000c1198800d4198800e219880000000600fb
:1005a0008119880094198800a219880000000600ab
:1005b000801c880000000600e04f5000040032005c
:1005c000e14f500002003a00f11b880000000600d5
:1005d000711c880000000600e14f5000030032004b
:1005e000e24f500005003a0002003700f11a88007f
:1005f00000000600711a880000000600711b8800c8
:10060000000006009623ef008760a900c01c880048
:10061000e7826000cc2add0006058000f4ff280098
:10062000040263000502720004058800e88060008f
:10063000c308de00e1806000cb08dd0074048000a8
:1006400004b0a100010272007404880000000600da
:100650004011880031118800000006000001eb0005
:1006600057000700040032000200200003f82300b6
:1006700001f0a6003201070000000600889fbe00be
:100680008a9fbe008c1f7800f2000700f90033003b
:1006900003866c006450e1002e0032006420e1000b
:1006a000330032006150e1002f0032006120e10090
:1006b0003100320085855500eb07b00009002000ad
:1006c00008042000050037000804440089844c0019
:1006d0000a0031000603430087834b0000015300ea
:1006e00081815b00f8ff33000203be000800a00018
:1006f0000804440089844c00f6ff3900c639dd0047
:100700008301730001003200130020008904d1002e
:100710000884d3000998a300050032000800a70050
:100720000300a0008904d1000884d3008b05e800f1
:100730008904d1000884d3000001eb000281d200bb
:100740008900070001f0a1000cf0a70001f0a00053
:10075000d10037006420e100d30032000801be0060
:100760000200be00f7ff37006120e100ce0032003a
:100770006000b800f3ff37000000200001f82700f8
:10078000f0ff3700839f68000100e00002003d0099
:1007900060001000e08018000300e00002003d004f
:1007a00060011100e0811900d10007004f00e00056
:1007b00002003b0060001000e0801800000006000e
:1007c000889fbe008a9fbe000003be008c00070009
:1007d0008505780082815200020020006220e1003d
:1007e00004003a00f307b100040035007718e10077
:1007f000040035000600be00140037006000b80099
:100800000f003700f50f2000faff2f008502d100fe
:100810000a85d3008301e900fcff3b00818462006c
:1008200000046500890f7400f2ff32008582ea003f
:100830000a85ea0081846200000465004a0007001e
:1008400007f0a70001f0a0000081eb000200e0002b
:100850004f05be004f04be0000000600140020003b
:10086000140137000001be00650007000470a700f6
:1008700003f0a1006509b100160032000d0035003b
:100880006828e10006003500f0ff2f00f1ff270087
:100890000300e00013003b000100280000000500f9
:1008a00000004000818048008502e900fcff3a001a
:1008b00008003700f88f420002003c008000eb0087
:1008c000000005008100d1000080d3008502e8000f
:1008d000fcff3a000300e00002003b006000100053
:1008e000e0801800000006000001be004400070080
:1008f0000470a70003f0a10003f8a30013003a005e
:100900006509b10010003200090035006928e100d6
:100910000200350001002800000005000000400032
:10092000818048008502e900fcff3a0000000600d3
:10093000f88f4200050035008100d1000080d3000f
:100940008502e800fcff3a00000006008000eb0092
:10095000000005004f89de0082017800f0003700ba
:100960006011b800fe003700810020006180550052
:100970000b003d000b00200061fe2f000100e10094
:100980001d00340082817100610164008904d1007e
:100990000884d3000000e800faff3a00710020004c
:1009a0006100640003007000020060000900320072
:1009b00061044400e0844c000988a5000500320071
:1009c0008b05e8006808e10002003a008904d100c4
:1009d0000884d300f20f20000258e10005003d001a
:1009e000c75ddd00f907b200898075000800780056
:1009f000000006000bf827008b00780000000500bf
:100a0000c70ade00f107b200f50fb200080032009d
:100a1000e1cf4200020032000170a0002400050076
:100a2000810f700001003200040805004400050039
:100a3000810f700002003a00140005008502e900f1
:100a40000000400081c04800fcff3b000170a00096
:100a5000240005000004be00e9ff07000003be00fb
:100a60000405be000200be00e5ff0700844f7500cc
:100a7000000006000200be006450e10005003600e0
:100a80006420e100020036000968a30001003a007a
:100a90000800be000160a0004f0678004f05be00b0
:100aa0004f04be0000000600f0ff2f00f1ff2700fa
:100ab000f9ff3700811f78000100e00002003d00cf
:100ac00060001000e08018000300e00002003d001c
:100ad00060011100e0811900150007004f00e000df
:100ae00002003b0060001000e080180000000600db
:100af0006022b800060220000000d0008180d200f1
:100b00000482d2008582d2000000a00002025200be
:100b100083825a00030031000202420083824a00ad
:100b20000000a1000603e900f3ff3a000000060000
:100b3000efff07000400be000000060003f0a20063
:100b4000889fbe008a9fbe008c1f7800c1ff0700ef
:100b5000c8ff33006450e1004f0032006420e10020
:100b60005200320003826c0007003b000905d000f0
:100b70000306d000820f54000c065d00020039000d
:100b80000200320089017800030678008582550052
:100b900004003d000003fd008103fd008502ea0022
:100ba0008b854200840f720002003b006000100041
:100bb000e08018006011b8000005eb007a28e10021
:100bc0000a00390006007800c75ddd00f707b200b3
:100bd000878075002d003700828171000a0178003e
:100be000610560008180d1000080d3008502e900aa
:100bf000f9ff3b00060440008784480002003b00e8
:100c000060041400e0841c000988a300070032007f
:100c10008a81710082817100610164008904d100c0
:100c20000884d3008b05e800170037000978a3007b
:100c300013003a000b00e000130034008b05e900bc
:100c40000804440089844c000a4474000978a30015
:100c50000d003a000b00e000070034008b05e900ae
:100c60000804440089844c0001003a000b00200075
:100c70000978a300f7ff32000001eb000200370003
:100c8000828171000a01780037ff07000cf0a7008d
:100c900001f0a00080ff37006420e10002003a006c
:100ca000838f6c0080ff33000801be000200be008d
:100cb00079ff3700889fbe008a9fbe00841f78009e
:100cc00064ff07004f00780011003300f0ff2f0091
:100cd000838f6c0006003b00040565000a00a70036
:100ce0000800370009f0a6001000200008003700b7
:100cf000820f5400838f5c00030039001000200035
:100d000001003e000000200009f0a7000000ea00fa
:100d10004f05be004f04be000000e00000000600ca
:100d2000881f7800030478000300e00007003d00fe
:100d300060001000e080180060011900e0811900d7
:100d400002003b0001f02d00030037000400070003
:100d500008f0a70001f0a0004f0478000000060092
:100d6000889fbe008a9fbe0000827000040271004e
:100d700004827100260032000004be000200be00a2
:100d80006011b8006b092000950220000182cf009d
:100d90000a0039000541b1000082cf000700390088
:100da0000541b1000982cf00040039000541b100be
:100db0000882cf00010039000541b1000542520010
:100dc000120032000a003b00828171006101640060
:100dd0008100d1000080d3008984d3000884d3002f
:100de0008b05e8000442e800f7ff3a0007003700ef
:100df0000804440089844c000000480081804800b9
:100e00008b05e9000442e900f9ff3a00d6fe07002d
:100e10004f05be004f04be0000000600000278002f
:100e200084027800050278000043eb00b44f130001
:100e3000fbff3a0031427800845a7800e04f5200bc
:100e4000fcff3a0000000600000278008042eb0040
:100e5000b4cf1200fdff3a000080ea00000042001b
:040e60000000060088
:020000040000fa
:100e64000800fa00204798003147980022079800ac
:100e7400634798002e4290000482fb004822dd0064
:100e84000408b000040f78003e4290000482fb0086
:100e94001e0f42006e419000ae0090001e007800cc
:100ea400e90a07000080fa00000006000800fa00c2
:100eb40020479800210798006247980004582000b2
:100ec400040f78002e4290000482fb001e0f4200a3
:100ed4006e419000ae0090001e007800da0a070010
:100ee4000080fa00000006002800fa00600f980055
:100ef400710f980002179800131798002417980090
:100f04003517980044c0b300044f780064024700ca
:100f140003000900001aeb007c0247001407980044
:100f24001e02900014427800444798001e0290006c
:100f34000402e80014427800544798001e0290000e
:100f44000482e800144278006447980004022000f8
:100f54000e024200140798001e029000144278000a
:100f6400744798001e0290000402e80014427800be
:100f7400044f98001e0290000482e8001442780096
:100f8400144f9800640247008041eb00040178008c
:100f94009e40780010c0b300b1ff07006c02470008
:100fa40003000900001aeb002e1290000402ea006c
:100fb40024179800440220000e02420014079800ef
:100fc4001e02900014427800444f98001e029000c4
:100fd4000402e80014427800544f98002e12900046
:100fe4000402ea0024179800440220000e02420082
:100ff400140798001e02900014427800644f980071
:101004001e0290000402e80014427800744f980015
:10101400640220000e024200140798001e02900091
:1010240014427800245798001e0290000402e8003d
:1010340014427800345798006c02470013c0b30080
:10104400040178009e40780020c0b30084ff0700ac
:101054007402470003000900001aeb007402470001
:1010640023c0b300040178009e40780030c0b30070
:101074007bff07000080fa00000006000200fa006f
:10108400000f78001e0278009442780004c4b30074
:1010940084cf520004003a00e49520001e0078003a
:1010a400040001002f0037001e027800144278006b
:1010b4008402fb00340f200084826200240220009a
:1010c400848f520004003a00848b20001e007800b4
:1010d40004000100230037001e0278001442780047
:1010e4008402fb00340f200084826200040220008a
:1010f400848f520004003a00c49220001e0078003d
:1011040004000100170037001e0278001442780022
:101114008402fb00040e200004826200e00f5200ef
:1011240004003a0004e020001e00780004000100de
:101134000c0037001e0278009442780004c6b30005
:1011440084cf5200050032001e02780094427800d9
:1011540004c7b30084cf520002003a0084d92000af
:10116400040001000080fa00000006000e00fa00ee
:101174006007980044c0b300044f78006e029000ea
:101184006302420014427800144798006e029000f3
:101194000402e800144278008402fb006e0290000e
:1011a4000482e800144278000402fb004822dd00b7
:1011b40004824200140798001e4290000482fb003f
:1011c400e20f520003003200e40f52000800320024
:1011d4001e0037006e0290006402420042002000ac
:1011e400840078001e009000770407000400370094
:1011f400c4d320006e009000040001000000000031
:1012040004c6b300444798006e0290000402e8004c
:1012140014427800544798006e0290000482e8005b
:1012240014427800644798006e0290006302420002
:101234001442780074479800640247000041eb00b0
:10124400840078001e40780018ff07000080fa0030
:10125400000006000200fa00000f78001e02e800f9
:10126400144278008402fb001e82e80014427800d5
:101274000402fb004822dd00048242005446880038
:101284009e02780063824200144278000402fb004c
:10129400644688009e02780064824200144278000a
:1012a4000402fb00444688000002eb0074468800f8
:1012b4000080fa00000006000600fa0020079800eb
:1012c4002e0290006302420014427800044f78001a
:1012d4002e0290000402e800144278008402fb000d
:1012e4002e0290000482e800144278000402fb00fd
:1012f4004822dd0004824200140798009e029000f8
:1013040004002200848f520004003a00c49b200091
:101314002e00900004000100140037009e42780063
:101324000582fb00e20f520008003200e40f520075
:101334000a003200e10f52000c003a0004c32000fe
:101344002e009000040001000800370004b12000c2
:101354002e009000040001000400370024c920007e
:101364002e00900004000100000000000080fa003c
:10137400000006003600fa00201f980044c0b300a5
:10138400044f98000e027800c402b0000300090064
:10139400001aeb002e1a90000402e80014427800b0
:1013a4008402fb002e1a90000482e80014427800a4
:1013b4000402fb004822dd00048242005407980026
:1013c4002e1a900063024200144278000402fb00cb
:1013d400640798006e024700840078005e00900065
:1013e4005303070000027800140798001e029000bf
:1013f400e00f5200860032002e1a90000402e8002a
:1014040014427800546f98002e1a90000482e80069
:1014140014427800646f98002e1a90006302420010
:1014240014427800746f98006e029000050020004a
:101434006600200007002000860f5200878f5a00a4
:1014440038003e0004600100060037000b0037003e
:1014540011003700170037001d0037002300370044
:1014640029003700b4c4b300446f98006e0f4700de
:1014740014002000140798002a003700b4c4b300f5
:10148400446f98006e024700048fe8002400200097
:10149400140798002300370014c4b300446f980065
:1014a4006e024700640f4200a40020001407980055
:1014b4001c00370034c4b300446f98006e02470028
:1014c4006e0f4200440020001407980015003700f6
:1014d40034c4b300446f98006e024700720f420098
:1014e40044002000140798000e00370074c4b300b1
:1014f400446f98006e024700760f420034002000cb
:10150400140798000700370034c4b300446f9800f0
:101514006e024700790f420044002000140798002f
:1015240000000000ce6a900014c4b30084cf5200bf
:101534001d003a001e0290000442780004779800cf
:101544000042eb00147798000002eb002407980097
:101554000002eb00240798000a0037002e029000d6
:101564001e024200144278002e03900005802000e1
:1015740085024300844a78002e0290000402e800a9
:1015840024079800ae0290001e029000848f52003f
:10159400f2ff39000002eb00744688001e0290003e
:1015a40044468800130037000002eb00340798001b
:1015b4000002eb00340798000a0037003e02900056
:1015c400e40242003e0290001e02420014427800ef
:1015d40085024700c46a98003e0290000402e800b5
:1015e40034079800be0290001e029000848f5200bf
:1015f400f2ff3900c40220000e0242000041eb0059
:10160400840078000e48900028fe0700010037008f
:10161400000000000080fa0000000600ac00fa00a0
:101624005097980044c0b300444798006c024700a8
:1016340003000900001aeb005e9290000402e80027
:10164400144278008402fb005e9290000482e80059
:10165400144278000402fb004822dd0004824200a8
:10166400340798003e009000410307000002780010
:10167400044f980074024700840078003e009000f4
:10168400ab02070000027800540798005e02900045
:10169400e00f52006e0032005e9290000402e800f7
:1016a40014427800544f98005e9290000482e8003f
:1016b40014427800644f98005e92900063024200e6
:1016c40014427800744f98005e029000e40f5200b8
:1016d4001e00360014c4b300444f98005e0290000c
:1016e40004427800045798005e0290004822de000d
:1016f40004427800145798000002eb00040f7800ad
:101704000002eb00040f7800070037007402470062
:101714001e02420014427800058020009e8242008e
:10172400844a78001e0fe8009e0278005e02900052
:10173400848f5200f5ff39000002eb0074468800e4
:101744005e029000444688003b0037000e4a900039
:101754000402fb006123b900d4ff2f00f5ff2f0022
:101764000602420087824a00d600200007002000bb
:10177400860f5200878f5a001b003e000460010050
:101784001300370018003700170037001300370024
:10179400150037000b003700130037001200370024
:1017a40011003700100037000f0037000e0037001b
:1017b4000d0037000000370074c4b300444f980094
:1017c4000900370034c4b300444f980006003700c2
:1017d400b4c4b300444f980003003700b4c4b3004a
:1017e400444f9800000000000002eb00140798002a
:1017f4000002eb00140798000b0037001e02900053
:10180400e4024200740347001e02900004024300f5
:101814001442780085024700c44a98001e029000d2
:101824000402e800140798009e0290005e029000f3
:10183400848f5200f1ff39006c0247000041eb0035
:10184400840078004e40900098fd070001003700a6
:10185400000000000080fa00000006001000fa00fa
:101864007007980044c0b300044f78007e029000d3
:101874000402e800144278008402fb007e02900017
:101884000482e800144278000402fb004822dd00d0
:1018940004824200140798001e009000b40207005e
:1018a40000027800444798004e429000e14f420005
:1018b40018003200b4c4b300544798007e0290006c
:1018c4000402e80014427800644798007e02900005
:1018d4000482e80014427800744798007e02900065
:1018e4006302420014427800044f98004e42900074
:1018f400144f98000042eb00244f98006502470003
:101904000041eb00840078001e40780067fd07006a
:1019140001003700000000000080fa00000006000b
:101924002e00fa006017980044c0b300044f7800fa
:101934006502470007000900005aeb006e12900090
:101944000402e800144278008402fb006e12900046
:101954000482e800144278000402fb004822dd00ff
:1019640004824200140798006d0247008400780046
:101974001e009000240207000002780044479800eb
:101984004e429000e04f5200370032006e12900039
:101994000402e80014427800644798006e12900034
:1019a4000482e80014427800744798006e12900094
:1019b4006302420014427800044f98004e429000a3
:1019c400e44f520010003e0045c0b3004e42900068
:1019d40004c25200250020000522dd003444b0007a
:1019e400544798005e4a9000144f98006e4a900045
:1019f400244f98007e4a9000344f98000e52900075
:101a0400444f98001200370014c4b30054479800a0
:101a14004e429000144f98000042eb00244f98006f
:101a24000042eb000400780000e8b7006d024700b4
:101a34008400780000802000f7fc07000002eb001f
:101a4400744688004e4290000482fb00444688009d
:101a5400650247000041eb00840078001e407800d6
:101a640012fd070001003700000000000080fa00aa
:101a7400000006000c00fa00500798005e02900077
:101a84000402e800144278008402fb005e02900025
:101a94000482e800144278000402fb004822dd00be
:101aa40004824200140798005e02900014427800f9
:101ab4000402fb006c02620042a2de00444798006c
:101ac4000002eb00040f7800070037001e027800c4
:101ad40064024200de029000048242001442780054
:101ae400544798001e0fe8004e4290000482fb0009
:101af400640212009e0f5200f4ff3c004e4290001c
:101b04000482fb0064021200840247000042eb00de
:101b1400d442980065024700840078001e009000bb
:101b2400790207000080fa00000006000c00fa00a9
:101b340044c0b3002447980064024700030009002e
:101b4400001aeb0074468000e8024200444680001c
:101b5400848f52001000360014c0b300444798002c
:101b64007446800084427800444680000442780031
:101b740004c2520067424200344798004e4290002b
:101b8400844278003e4290000442420004c2420073
:101b940044479800020037000042eb004447980095
:101ba40014002000040f78000a00370075468000f6
:101bb4000480200004824200144278006403470039
:101bc4001e034300044b78000502e80074468800b5
:101bd4001e0fe8001e027800e70f5200f3ff3400e6
:101be400640247000041eb00840078002e4090001e
:101bf400aefc07000080fa00000006000600fa00b0
:101c0400200798000002eb00040f78002e029000d9
:101c1400144278000402fb0061026200044278006e
:101c2400e04f52002b0032002e0290001442780044
:101c34000402fb006e0262000482d1002447980073
:101c44000c003700754680001e0278000402e8008c
:101c54002e03900004024300144278000680200002
:101c640006834200044b78000502e80074468800ad
:101c74001e0fe8002e4290000482fb00670212004f
:101c84009e0f5200efff3c00454680005446800002
:101c9400050178000180200004007800ca010700d3
:101ca4000f003700754680001e0278000402e80029
:101cb4002e039000040243001442780006802000a2
:101cc40006834200044b78000502e800744688004d
:101cd4001e0fe8001e027800e60f5200f1ff3400e8
:101ce4000080fa00000006004000fa00889fbe0051
:101cf400401f9800217f9800621f9800731f98006e
:101d040072024700040078004d0307002e7a900009
:101d1400246f9800b3020700000278000402e80070
:101d2400341798007e1a9000050020000400be00bd
:101d34000afb07000004be002e5a90000482fb0038
:101d4400cfa2de000400be0001fb07000002be00bb
:101d54000401be000800be0047fa07000002be00ee
:101d640044079800550798004e009000de0090004c
:101d740039fa07000002be0044079800550798008e
:101d84004e009000de009000d6fa07000002be006c
:101d94000442780004407800ab0307000002780096
:101da400040f78001e027800e10f420002003a009e
:101db4000042eb00a00037001e0278004417980090
:101dc4000002eb0014079800110037002e5a90000f
:101dd4008482fb001e02900004aab9000402780069
:101de400ee1a900004824200840078001e007800fd
:101df400870407001e0078004803070000027800eb
:101e0400040f78001e0290000402e80014079800f2
:101e14001e029000cfa2de000400be00ccfa070030
:101e24000002be0018c0b3004e019000de01900015
:101e34000400be0088fa070000027800e00f520098
:101e4400010035000044eb00e04f5400dfff3a008e
:101e5400bc03070000027800240798002e029000bb
:101e6400e10f420002003a000042eb00720037002a
:101e74004e189000f3fb070000027800e30f5200b5
:101e84000e003e000042eb0024679800240220006c
:101e94000e024200ce18900004007800defb07001a
:101ea400240220000e024200840078002e009000dc
:101eb400de03070014c0b3005f003700f4c0b300b2
:101ec400246798004e189000defb0700000278009b
:101ed4000402e800050020000400be009ffa070089
:101ee4000004be003e5a90000482fb00cfa2de0034
:101ef4000400be0096fa07000002be000401be0002
:101f04000800be00dcf907000002be006407980068
:101f1400750798006e009000fe009000cef907004f
:101f24000002be000400be004dfa07000002be001d
:101f34000402780064179800c40220000e024200d4
:101f4400040f98000e0a9000144278003467980039
:101f54000e0a90000402e8001442780044679800d6
:101f64000042eb0054679800240220000e02420055
:101f7400840078002e009000ac0307000002eb0000
:101f840014079800270037003e5a90000482fb0093
:101f9400ae02900004824200240798000002eb0085
:101fa40034079800120037003e5a90008482fb00e8
:101fb4001e02900004aab900840278003e02900038
:101fc40004824200ce1a9000048242001442780037
:101fd400e60220000e034300be0290008502430087
:101fe400844a78003e0290000402e8003407980016
:101ff4003e5a90008482fb003e029000848f52007f
:10200400e9ff3c00e40220000e0242008400780054
:102014002e009000850307001e0290000402e800d1
:10202400140798009e0290006e129000848f520054
:10203400d5ff390014c0b300044078004f04be003b
:102044000080fa00000006002400fa00101798002f
:102054000042eb00644798006802470004007800df
:10206400770207001e10900021020700000278008a
:102074001407980078024700840078001e0090003e
:10208400770307007e0a9000040078001503070018
:102094000e5a9000ef4f52001c003a001e5a900056
:1020a4008402fb002e5a90000402fb0004824200ca
:1020b4004822dd002407980014002000040f780053
:1020c4000e0037001e5290008482fb001e0278002e
:1020d40004aab90004027800840278001e02900069
:1020e40004824200e60247001200200085007800c6
:1020f40004007800f20407001e0fe8002e0290008e
:102104000402e8009e0f5200eeff3c006602470006
:1021140012002000840078001e009000e8040700ec
:102124005c030700044078000080fa000000060009
:102134002400fa000017980011179800660247005f
:10214400040078003e0207000e109000e80107002a
:1021540000027800240798002e029000e10f42004c
:1021640002003a000002eb00240037007602470028
:10217400840078002e009000390307006e0a900056
:10218400040f78000002eb00140798006e4a9000d8
:102194008482fb001e02900004aab90004027800a5
:1021a4009e12900004824200840078001e00780091
:1021b400b00307001e0078005802070000027800f0
:1021c400040f78001e027800e10f420007003a0075
:1021d4001e0290008402e8006e4a90000482fb0014
:1021e40004aab90004027800040037001e0290001b
:1021f4000402e80014079800e4ff370004007800a4
:102204000080fa00000006003000fa006017980011
:10221400711798006802470004007800080207005c
:102224006e109000b20107000002780024079800a5
:102234002e029000e10f420002003a000042eb003f
:102244004800370078024700840078002e00900090
:10225400030307000e5a9000ef4f520036003a0075
:102264001e5a90008402fb002e5a90000402fb00c8
:102274004822dd0004824200340798001400200044
:10228400040f7800270037001e5290008482fb0060
:102294001e02780004aab900840278002e0290007d
:1022a40004824200250220008e82420085007800cc
:1022b40004007800ea0207000002eb00140798000b
:1022c400120037009e02e9001e5290000482fb00b7
:1022d40004aab900840278001e029000048242001d
:1022e400fe12900084824200260220000e03430066
:1022f4001e0290000402430014427800844a7800cd
:102304001e0290000402e800140798001e52900078
:102314008482fb001e029000848f5200e9ff3c007f
:102324001e0fe8003e0290000402e8009e0f5200d7
:10233400d5ff3e0007003700fe1290000042eb007c
:10234400844a780078024700840078007e10900068
:10235400b1fa07007e109000bafa07000002780074
:1023640004427800044078000080fa00000006006f
:102374001e00fa00600f98000e82e8000400780046
:10238400af0107006e0890005901070000027800b1
:10239400040f78001e027800e10f420002003a00a8
:1023a40000c2eb0005003700720247008400780089
:1023b4001e007800aa0207002e5a900004407800fc
:1023c4000080fa00000006002a00fa00889fbe0080
:1023d4002017980031179800421798006a024700a6
:1023e40004007800960107002e10900040010700b9
:1023f40000027800240798007a02470084007800dd
:102404002e009000960207000e129000040f780030
:102414004e129000050020000400be004ff9070092
:102424000004be002e5290000482fb00cfa2de0006
:102434000400be0046f907000002be000401be000d
:102444000800be008cf807000002be0034079800a4
:10245400450798003e009000ce0090007ef80700eb
:102464000002be0034079800450798000002eb0004
:1024740014079800110037002e5290008482fb004c
:102484001e02900004aab90004027800be12900053
:1024940004824200840078001e007800dc020700f9
:1024a4001e0078009d01070000027800040f7800e8
:1024b4001e0290000402e800140798001e02900017
:1024c400cfa2de000400be0021f907000002be0016
:1024d40018c0b3003e019000ce0190000400be007d
:1024e400ddf8070000027800e00f5200010035001b
:1024f4000044eb00e04f5400dfff3a004f04be00fd
:102504000080fa00000006003e00fa00889fbe002a
:10251400501f9800611f9800720247000400780061
:10252400470107000042eb00246798005e18900002
:10253400ef000700000278004407980044022000de
:102544000e024200840078004e009000440207000e
:102554004e629000ef4f52001d003a005e62900000
:102564008402fb006e6290000402fb0004824200bd
:102574004822dd005407980014002000040f78005e
:102584000f0037003e5a90008482fb001e02780040
:1025940004aab90004027800840278004e02900074
:1025a40004824200250220008e8242001200200094
:1025b4008500780004007800c10307001e0fe800be
:1025c4005e0290000402e8009e0f5200edff3c0002
:1025d400240220000e024200120020008400780031
:1025e4004e009000b60307002a020700d501070039
:1025f40000027800140798001e029000e10f4200c8
:1026040002003a000042eb00720037006e1890009e
:102614000cfa070000027800e30f52000e003e009f
:102624000042eb0044679800440220000e0242007e
:10263400ee18900004007800f7f907004402200027
:102644000e024200840078001e009000f70107008b
:1026540014c0b3005f003700f4c0b30044679800af
:102664006e189000f7f90700000278000402e800f1
:10267400050020000400be00b8f807000004be00f6
:102684003e5a90000482fb00cfa2de000400be008c
:10269400aff807000002be000401be000800be003f
:1026a400f5f707000002be0064079800750798005c
:1026b4006e009000fe009000e7f707000002be00e5
:1026c4000400be0066f807000002be0004027800a1
:1026d40074179800e40220000e024200040f9800d0
:1026e4000e0a900014427800546798000e0a900075
:1026f4000402e80014427800646798000042eb008a
:1027040074679800440220000e024200840078009e
:102714001e009000c50107000002eb00240798008a
:10272400270037003e5a90000482fb009e0290006e
:1027340004824200140798000002eb00340798005a
:10274400120037003e5a90008482fb002e02900053
:1027540004aab900840278003e0290000482420078
:10276400ee1a90000482420014427800060320000e
:102774000e034300be02900085024300844a7800a1
:102784003e0290000402e800340798003e5a90008c
:102794008482fb003e029000848f5200e9ff3c00db
:1027a400040320000e024200840078001e00900002
:1027b4009e0107002e0290000402e80024079800fe
:1027c400ae0290007e129000848f5200d5ff390033
:1027d40014c0b300044078004f04be000080fa0027
:1027e400000006002000fa0066024700040078009a
:1027f400930007000002eb00040f7800be02900073
:102804004e0290000482420014079800250037000d
:102814001e029000f602470085007800040078004c
:102824008f0107006e529000e04f520026003200e4
:102834005e0a90009e0f5200020036005e0a90006d
:10284400040f78006e529000ef4f520010003a00cf
:102854007e5290008402fb000e5a90000402fb009a
:102864004822dd0004824200240798007e4a90003a
:102874008482fb002e02900004aab900840278002e
:102884001e02900004824200140798000000000019
:102894007e4a90000482fb009e0290000482420063
:1028a400140798009e0290003e0390004e02900090
:1028b400040343005e02900004024300848f52002c
:1028c400d3ff390001003700000000001e02780029
:1028d400e00f520002003a00f4ff2100010037002b
:1028e4001e027800040078000080fa000000060050
:1028f4002200fa00001798006602470004007800de
:102904004f0007000082eb00040f7800be02900025
:102914004e029000048242001407980027003700fa
:102924001e029000f602470085007800040078003b
:102934004b010700de0a90000e129000848f5200b3
:1029440003003a001e029000040f780025003700af
:102954006e529000ef4f520010003a007e529000e9
:102964008402fb000e5a90000402fb004822dd00a2
:1029740004824200240798007e4a90008482fb006f
:102984002e02900004aab900840278001e0290006e
:102994000482420014079800030037006e5290002e
:1029a400e04f52000e0032007e4a90000482fb0089
:1029b4009e02900004824200140798009e02900038
:1029c4003e0390004e029000040343005e02900018
:1029d40004024300848f5200d1ff39000100370004
:1029e400000000001e027800040078000080fa0055
:1029f400000006001000fa0004012000040f780013
:102a0400445f20001407980004e120002407980084
:102a140084be20003407980044c0b300044f9800db
:102a240094c0b300144f9800020120008e00780077
:102a34000000eb00a20207000080fa00000006007c
:102a44000200fa00000f7800020120009e007800c6
:102a54000000eb00bf0207000080fa00000006003f
:102a64001600fa000002eb00140f98000042eb007d
:102a740044579800dfff07000e82e8000400780046
:102a8400efff07001e029000040f780006003700d5
:102a94007202470022002000840078001e007800a3
:102aa400870207001e8fe8009e0278001e03900034
:102ab4002e02900004024300848f5200f4ff390078
:102ac4009e0290002e02900004824200040f7800bf
:102ad40008003700740247001200200084007800c8
:102ae4001e007800760207003e4a90000482fb0034
:102af4001e0f42009e0278001e0390002e029000da
:102b0400040343003e02900004024300848f5200f9
:102b1400f0ff39000080fa00000006001600fa00f9
:102b2400200f98000e82e80004007800c4ff07001c
:102b34009e0290002e0a9000040242000482420089
:102b4400048fe8007202470022002000840078000d
:102b54001e0078007f0207001e0a9000040078001f
:102b64000080fa00000006001600fa00100f98001a
:102b7400210f98000e82e80004007800b0ff0700df
:102b84009e0290001e0a9000040242000482420049
:102b9400048fe800740247002200200084007800bb
:102ba4001e007800460207000080fa0000000600bc
:102bb4001600fa006402470004007800a0ff070032
:102bc4000082eb00040f78002e0290000482e800db
:102bd40014079800120037007402470022002000f6
:102be400840078001e0090005a0207002e0a90000c
:102bf400e00f520007003a009e0290002e0290005f
:102c0400048252000402d100040f78001e0fe90070
:102c1400090037001e0290000482e800140798009f
:102c24009e0290002e0390003e0290000402430096
:102c3400848f5200e8ff39001e02780004007800f7
:102c44000080fa00000006000a00fa00004f980015
:102c54000002eb002407980019003700d4ff070096
:102c640000027800340798003e029000e10f420011
:102c740002003a003e029000170037002e02900036
:102c8400e00f520004003200be0090001e007800e5
:102c9400b5ff0700020037003e02900014079800b9
:102ca4008080eb003e009000afff07003e029000e2
:102cb400040f78002e0290000402e8002407980014
:102cc4000e4a90008482fb002e029000848f5200f2
:102cd400e2ff3c001e029000040078000080fa002d
:102ce400000006001600fa00200f98006402470056
:102cf4000400780052ff07002e0a9000040f7800a9
:102d040001003700000000001e00780083ff070068
:102d140000027800140798008000eb001e00780081
:102d240091ff07001e029000040f78001e0290001d
:102d3400e10f4200f3ff3a00000000000080fa00b7
:102d4400000006001a00fa0066024700040078003a
:102d54003bff07000082eb00040f7800be029000e6
:102d64004e029000048242001407980023003700aa
:102d74007602470032002000840078001e00900094
:102d8400f40107006e529000ef4f520010003a0019
:102d94007e5290008402fb000e5a90000402fb0055
:102da4004822dd0004824200240798007e4a9000f5
:102db4008482fb002e02900004aab90084027800e9
:102dc4001e02900004824200140798000600370097
:102dd4006e529000e04f520003003a001e02900031
:102de400040f78000d0037007e4a90000482fb0037
:102df4009e02900004824200140798009e029000f4
:102e04003e0390004e029000040343005e029000d3
:102e140004024300848f5200d5ff39001e0278005b
:102e2400040078000080fa00000006001400fa0094
:102e3400000f9800110f98000e00780000ff0700a3
:102e44001e4a90000482fb00040178009e08900052
:102e54000e0890009a0107000080fa0000000600a6
:102e64001400fa00000f9800110f98000e0078006b
:102e7400f3fe07001e4a90000482fb000401780060
:102e84009e0890000e089000b20107000080fa002e
:102e9400000006002200fa006602470004007800e1
:102ea400e7fe07000082eb00040f78000082eb00cd
:102eb400140798000042eb0074579800be0290007b
:102ec4004e02900004824200240798001b00370041
:102ed4007602470012002000840078002e00900043
:102ee4009c0107006e529000e04f520005003a002a
:102ef4001e027800e10f420002003a002e02900008
:102f0400040f78006e529000e04f52000600320029
:102f14001e027800e10f4200030032002e029000ee
:102f2400140798000d0037007e4a90000482fb00cd
:102f3400ae0290000482420024079800be02900072
:102f44004e029000848242005e029000848242001d
:102f54002e029000848f5200ddff3e001e0290007e
:102f6400e10f42001d003a000042eb00250037004b
:102f740078024700840078001e009000b8ff070024
:102f84000e5a9000e04f520002003a0014c0b30001
:102f94001c00370078024700840078001e00780087
:102fa400a2ff070077024700120020008400780087
:102fb4001e009000420107007e4a90000482fb003c
:102fc4009e02900004824200140798007e4a9000fa
:102fd4000482fb001e0f42000100370000000000c5
:102fe400be0290004e029000848242005e02900075
:102ff400848242001e029000848f5200dcff3e0057
:1030040014c0b300044078000080fa0000000600f9
:103014001600fa00100f9800210f98000e82e800a5
:103024000400780086fe07009e0290002e029000a5
:10303400848242003e029000048342002e4a9000a3
:103044008482fb001e0a900004aab90004027800de
:10305400040f43002e4a90000482fb000401780010
:10306400ae0890001e007800150107000080fa00e9
:10307400000006001600fa00100f9800210f9800b7
:103084000e82e800040078006dfe07009e029000a6
:103094002e029000848242003e029000048342008b
:1030a4002e4a90008482fb001e0a900004aab900f4
:1030b40004027800040f43002e4a90000482fb00af
:1030c40004017800ae0890001e007800210107007a
:1030d4000080fa00000006000800fa0020079800ab
:1030e400310798006022b800048fbe006022b80047
:1030f400048fbe00040037001400200005002000e7
:103104001e0f42005e974a002e029000be029000fd
:103114001e03be00840f5300858f5b00f6ff35004d
:103124000080fa00000006000e00fa004007980034
:1031340051079800620798006e029000eb0242006b
:103144000042eb00844a78000042eb00044f780010
:10315400a4002000140798004e029000de029000a4
:10316400e00f5200e08f5a0008003a001e0290005f
:10317400ee0290008482420004c3b300844a7800c3
:103184001e0290000402e900140798004e02900009
:10319400de029000e00f5200e08f5a0029003d004b
:1031a4004e029000de02900060021200e0821a00db
:1031b400440798005507980000c2eb00044f7800bc
:1031c400200037004e029000de0290002407980091
:1031d400350798002e029000be029000a200200045
:1031e400030020000400be0031f607000002be0008
:1031f40024079800350798001e029000ee02900004
:10320400848242002e029000044278000443b000fd
:10321400844a78001e0290000402e9001407980012
:103224004e029000de029000a20020000300200065
:103234000400be0052f507000002be0044079800d7
:10324400550798004e029000de029000e00f5200f5
:10325400e08f5a00dbff3c001e427800e14f420041
:1032640008003a001e029000ee02900084824200a0
:10327400d4c2b300844a78001e0290000402e9001c
:10328400140798001e0290000402e800040078006d
:103294000080fa00000006000800fa0010079800f9
:1032a40021079800320798000e8fe8001e0278006c
:1032b40014427800be029000844a78003e029000d6
:1032c4008402e8001e02e80014427800844a780070
:1032d4003e0290008482e8001e82e80014427800d6
:1032e400844a78003e029000e30242001e03780004
:1032f4006302430014427800844a78000080fa0094
:10330400000006000000fa000002eb00f408880048
:10331400f40880000440a0000450a000f4088800d1
:10332400244e2000d4088800f40480000440a00047
:103334000450a0000460a100f404880086a0a90041
:103344008ea0a8001fe1a8000080fa00000006007b
:103354000400fa000002eb00040f78000002eb0006
:1033640014079800e4c2a900e4e2a900e502a80059
:10337400007d20000100200057ff0700c40329003e
:10338400040f7800f4fb2d00140798009e009000b1
:103394001e007800adf407000080fa00000006006b
:1033a4000200fa00000f78008740a9004511800050
:1033b4000440200004826200e00f52000300320047
:1033c4001e0278005411880004003700f40f200016
:1033d4001e026200541188000000000034118000b5
:1033e40062026200e00f5200fcff3a00000000009d
:1033f400350480000440200004826200e00f520083
:10340400fbff320054118000040f78000080fa00a2
:10341400000006000000fa0026c2a9000002eb002a
:103424005411880000000000341180006102620021
:10343400e00f5200fcff3200341180006102620090
:10344400e00f52000c00320026c2a9004511800092
:103454000440200004826200e00f520003003200a6
:103464005411800004427800040037005411800095
:10347400044278000100370000c2eb0004407800e9
:103484000080fa00000006000000fa00e582a900ae
:10349400afff07000080fa00000006000000fa00f9
:1034a400e582a900e982a90060002000bcff0700b2
:1034b400e582a900e982a8000080fa000000060065
:1034c4000800fa00100798002107980032079800b6
:1034d400f2ff0700e582a900e982a900200020008c
:1034e400afff07001e0290004822de0004007800af
:1034f400abff07009e029000f40f200004826200dc
:1035040004007800a6ff07000002eb00040f780017
:10351400080037001e027800ae02900004824200c8
:10352400144278000402fb00040078009cff0700aa
:103534001e0fe8003e0290009e027800848f520025
:10354400f4ff3500e582a900e982a8000080fa00b2
:10355400000006000800fa00881f78001007980091
:103564002107980032079800e582a900e982a900a2
:10357400300020008aff07001e0290004822de006f
:103584000400780086ff07009e029000f40f2000dc
:10359400048262000400780081ff07000002eb004f
:1035a400040f7800070037001e027800ae02900076
:1035b4000484420097ff070000427800044c78001e
:1035c4001e0fe8003e0290009e027800848f520095
:1035d400f5ff3500e582a900e982a8004f047800d0
:1035e4000080fa00000006000200fa00e582a9004b
:1035f400e982a9005000200069ff070085ff070049
:1036040000427800044f7800e582a900e982a8000e
:103614001e427800044078000080fa000000060092
:103624000600fa000e82e8004200200084007800c0
:103634000000eb00c7ff07000e8fe8001e027800b1
:103644001402be000400be000080fa000000060060
:103654000400fa00000f7800110798000082eb00c4
:103664004415880027ff070038000700ffff3700d4
:103674003600f800809fbe00829fbe00849fbe007b
:10368400869fbe003400f80000002000a0018800de
:103694000000fa0086a0a9008002eb008438210013
:1036a40002502300c300200000352c00010020003c
:1036b4000df607000080fa003400f9004f03be0045
:1036c4004f02be004f01be004f00be003600f9009d
:1036d400004006003600f800809fbe00829fbe00b6
:1036e400849fbe00869fbe003400f80000002000c6
:1036f400a00188000800fa008760a9009603a900c9
:10370400841c80006e026200ee0f520002003a0038
:1037140096c3a900050037000e007800e3000700f7
:103724000e00780055f607008ee3a9000080fa0029
:103734003400f9004f03be004f02be004f01be002b
:103744004f00be003600f900004006000400fa00f5
:1037540000c0200095f3070000000000841c8000d6
:103764004522de00674262000482fb00e30f520040
:10377400faff3400815b200020002000fff20700e4
:10378400d1ff2f00300020009df3070044002000eb
:1037940005002000048fbe00046020000500200006
:1037a4003e034200ae834a00047c20000500200052
:1037b4000600780007037800840378000502780087
:1037c400070060000402630005002000c022dd0041
:1037d400040020000403be006102b8000403730067
:1037e40085837300423add00ce32de00850272002a
:1037f4004232dd000400780004602000050020004f
:103804003e034200ae834a000602be00422bdd00a6
:10381400ce23de00870373004223dd008602780096
:10382400f40f200004826200040270008402780015
:10383400c4ff2100048262006011b8008400780093
:103844000040eb0020f307006011b800d1ff210015
:103854000040eb0047f3070004602000050020004f
:103864003e034200ae834a00047c20000500200091
:1038740006007800070378008403780005027800c6
:10388400070060000402630005002000c022dd0080
:10389400040020000403be006102b80004037300a6
:1038a40085837300423add00ce32de008502720069
:1038b4004232dd000400780004602000050020008e
:1038c4003e034200ae834a000602be00422bdd00e6
:1038d400ce23de00870373004223dd0086027800d6
:1038e400f40f200004826200040270008402780055
:1038f400c4ff2100048262006011b80084007800d3
:1039040010c0b300f0f207006011b800d1ff21002d
:1039140010c0b30017f30700046020000500200066
:103924003e034200ae834a00047c200005002000d0
:103934000600780007037800840378000502780005
:10394400070060000402630005002000c022dd00bf
:10395400040020000403be006102b80004037300e5
:1039640085837300423add00ce32de0085027200a8
:103974004232dd00040078000460200005002000cd
:103984003e034200ae834a000602be00422bdd0025
:10399400ce23de00870373004223dd008602780015
:1039a400f40f200004826200040270008402780094
:1039b400c4ff2100048262006011b8008400780012
:1039c40020c0b300c0f207006011b800d1ff21008d
:1039d40020c0b300e7f20700310020000040eb00f4
:1039e400fcf20700410020000040eb00f1f2070068
:1039f4003100200010c0b300f6f20700410020009f
:103a040010c0b300ebf207003100200020c0b30067
:103a1400f0f207004100200020c0b300e5f20700e7
:103a240000802a00e1f2070000000000851c8000ed
:103a3400040e200004826200e00f5200fbff3a00f3
:103a44000080fa00000006000600fa00000f78006b
:103a540011079800424798004e4290009e03900040
:103a6400057c20009e826200452bdd009e027800ca
:103a74004228dd00f50f2000850260000503730075
:103a8400c58f2f00050363008442780084c0b3000f
:103a940087007800825f2000030020000600780081
:103aa40048f207000080fa00000006000200fa0055
:103ab400000f78001e0278000041eb0081c0b300c3
:103ac4000400780030f207000080fa0000000600cd
:020000040000fa
:103ad40000080000ce00000000000000ce08000036
:103ae40002000000020000000000000000000000ce
:020000040000fa
:0200000401f009
:04000000e7bf000056
:020000040000fa
:0200000401f009
:04000400ff7f00007a
:020000040000fa
:0200000401f009
:040008004fff0000a6
:020000040000fa
:0200000401f009
:04000c00ffff0000f2
:020000040000fa
:0200000401f009
:04001000ffff0000ee
:020000040000fa
:0200000401f009
:04001400ffff0000ea
:020000040000fa
:0200000401f009
:04001800ffff0000e6
:00000001FF
