:020000040000fa
:080000000001040000000000f3
:020000040000fa
:10000800bc010000bc010000bc010000bc010000f4
:10001800bc010000bc010000bc010000bc010000e4
:10002800bc010000bc010000bc0100003e12000041
:10003800bc010000bc01000052120000bc0100001d
:10004800bc010000bc010000bc010000bc010000b4
:10005800bc010000bc010000bc010000bc010000a4
:10006800bc010000bc010000bc010000bc01000094
:10007800bc0100007a120000bc010000bc010000b5
:10008800bc010000bc010000bc010000fc12000023
:10009800bc010000bc010000bc010000bc01000064
:1000a800bc010000bc010000bc010000bc01000054
:1000b800bc010000bc01000082130000bc0100006c
:1000c800bc010000bc010000bc010000bc01000034
:1000d800bc010000bc010000bc010000bc01000024
:1000e800bc010000bc010000bc010000bc01000014
:0800f800bc010000bc01000086
:020000040000fa
:10010800bc010000bc010000bc010000bc010000f3
:10011800bc010000bc010000bc010000bc010000e3
:10012800bc010000bc010000bc0100003e12000040
:10013800bc010000bc01000052120000bc0100001c
:10014800bc010000bc010000bc010000bc010000b3
:10015800bc010000bc010000bc010000bc010000a3
:10016800bc010000bc010000bc010000bc01000093
:10017800bc0100007a120000bc010000bc010000b4
:10018800bc010000bc010000bc010000fc12000022
:10019800bc010000bc010000bc010000bc01000063
:1001a800bc010000bc010000bc010000bc01000053
:1001b800bc010000bc01000082130000bc0100006b
:1001c800bc010000bc010000bc010000bc01000033
:1001d800bc010000bc010000bc010000bc01000023
:1001e800bc010000bc010000bc010000bc01000013
:0801f800bc010000bc01000085
:020000040000fa
:100200002fbe20000e7f22000e018800000000009b
:1002100000012000200288000c000700e00f2300ee
:100220000100200011000700000020000000e00095
:100230000200320000000200000000001a1202005a
:10024000000000000040da000000fe004440a90069
:10025000600620000000e0000300320000002000e3
:10026000a00188004440a800000006009101880019
:10027000800078000000eb0015003700e2804000ad
:1002800032a0b4009101ba00e280400032a0b40074
:100290009102ba00e280400032a0b4000002eb00fc
:1002a000472bde00f507b200602ce10004003a00a5
:1002b0000059eb008301e900fdff3e000400370018
:1002c0006128e100010032000082eb000400070019
:1002d0001101ba000200e000e8ff3a000000060049
:1002e0003159ba008301e9000c0032002159ba00eb
:1002f0008301e900080032000400e00003003a0036
:10030000e280400032a0b400f5ff370011d9ba00f6
:100310008301e900faff3a008100e800e180400033
:1003200032a0b400000006008216040000000000a5
:10033000ae15040000000000421b04000000000095
:10034000d41a040000000000781a04000000000025
:10035000e016040000000000601904000000000026
:100360003a18040000000000c81904000000000052
:1003700022300400000000000040da000000fe000f
:10038000901c8800a11c880000000600e14f50006e
:1003900006003200e24f500006003200e04f5000ed
:1003a00009003a00701b800003003700f01a80003b
:1003b00001003700701a8000680060000000e9004a
:1003c0004f00de00000006000040eb0000000600c9
:1003d0000002eb008180fb0009003700e04f510074
:1003e0000300320065372000e14f51000100320068
:1003f0006538200065487a000402e8000000e80043
:10040000810f5200f5ff350000000600401bde00a2
:1004100007002000e1cf520008003200e2cf520076
:100420000a003200001b8800161b8800221b88006f
:100430000003eb008483fb0012003700801a880061
:10044000961a8800a21a8800f9ff3700001a88005f
:10045000161a8800221a8800f5ff37006035200040
:10046000e1cf52000400320060362000e2cf52009b
:1004700001003a006034200011707b000603e800a0
:100480008100e800870f5300f4ff35006f426200df
:10049000e1cf52000a003200e2cf520011003200d8
:1004a000e0cf520018003a006f0262004322dd00e4
:1004b00075f82f00261b8000868262001700370027
:1004c0006f0262004322dd0075f82f00a21a80003f
:1004d0008282620004827200a41a88005e63a8000f
:1004e000000006006f0262004322dd0075f82f0055
:1004f000261a80008682620004827200241a880014
:100500004e63a800000006006f0262004322dd0077
:1005100075f82f00221b8000828262000482720024
:10052000241b88006e63a80000000600889fbe00a0
:10053000401cde00090020000003fb00cfb3de00fa
:10054000e50f5300e08f5b001e003e0006600100d7
:1005500005003700070037000a0037000d0037009c
:1005600010003700130037000118880018188800a1
:100570001600370041188800581888006218880053
:10058000130037008118880098188800a218880086
:100590000f003700c1188800d8188800e2188800ba
:1005a0000b003700011988001819880022198800eb
:1005b000070037004119880058198800621988001f
:1005c00003003700011888001818880022188800d6
:1005d0004f04be0000000600401ade0005002000a7
:1005e000e04f500006003200e14f500004003a0096
:1005f000c1198800d4198800e2198800000006009b
:100600008119880094198800a2198800000006004a
:10061000801c880000000600e04f500004003200fb
:10062000e14f500002003a00f11b88000000060074
:10063000711c880000000600e14f500003003200ea
:10064000e24f500005003a0002003700f11a88001e
:1006500000000600711a880000000600711b880067
:100660000000060090228800a122880000000600f9
:10067000e14f500006003200e24f50000600320009
:10068000e04f500009003a0070218000030037005d
:10069000f0208000010037007020800068006000ba
:1006a0000000e9004f00de00000006000040eb0003
:1006b000000006000002eb008180fb00090037000b
:1006c000e04f51000300320065432000e14f51002c
:1006d000010032006544200065487a000402e80009
:1006e0000000e800810f5200f5ff35000000060011
:1006f000401bde0007002000e1cf5200080032005e
:10070000e2cf52000a003200002188001621880042
:10071000222188000003eb008483fb0012003700d5
:100720008020880096208800a2208800f9ff3700ea
:10073000002088001620880022208800f5ff37005e
:1007400060412000e1cf52000400320060422000ee
:10075000e2cf520001003a006040200011707b009f
:100760000603e8008100e800870f5300f4ff35001e
:100770006f426200e1cf52000a003200e2cf520025
:1007800011003200e0cf520018003a006f02620000
:100790004322dd0075f82f0026218000868262004a
:1007a000170037006f0262004322dd0075f82f004a
:1007b000a22080008282620004827200a42088004d
:1007c0001e64a800000006006f0262004322dd00e4
:1007d00075f82f0026208000868262000482720055
:1007e000242088000e64a800000006006f0262004a
:1007f0004322dd0075f82f002221800082826200f2
:1008000004827200242188002e64a80000000600e3
:10081000889fbe00401cde00090020000003fb0092
:10082000cfb3de00e50f5300e08f5b001e003e00fb
:100830000660010005003700070037000a00370096
:100840000d0037001000370013003700011e88002c
:10085000181e880016003700411e8800581e8800a8
:10086000621e880013003700811e8800981e8800d1
:10087000a21e88000f003700c11e8800d81e880005
:10088000e21e88000b003700011f8800181f880037
:10089000221f880007003700411f8800581f88006a
:1008a000621f880003003700011e8800181e8800a0
:1008b000221e88004f04be0000000600401ade0021
:1008c00005002000e04f500006003200e14f5000cc
:1008d00004003a00c11f8800d41f8800e21f88006e
:1008e00000000600811f8800941f8800a21f880056
:1008f000000006008022880000000600e04f500043
:1009000004003200e14f500002003a00f12188005b
:10091000000006007122880000000600e14f500030
:1009200003003200e24f500005003a000200370099
:10093000f1208800000006007120880000000600f9
:1009400071218800000006009623ef008760a9004f
:10095000c01c8800e7826000cc2add00f4ff28007c
:100960000605800006026200050272000405880088
:10097000e8806000c308de00e1806000cb08dd0095
:10098000f47f2f00750480000502620001027200ee
:1009900074048800000006005624ef0088c0a900f7
:1009a000c0228800e7826000c82add00f48f2f0093
:1009b00036058000060262000502720034058800d8
:1009c000e8806000c308de00e1806000c608dd004a
:1009d000f4fb2f0085048000050262000102720012
:1009e000840488000000060040118800311188004e
:1009f000000006000001eb00570007000400320071
:100a00000200200003f8230001f0a60032010700d5
:100a100000000600889fbe008a9fbe008c1f7800e1
:100a2000f2000700f900330003866c006450e10017
:100a30002e0032006420e100330032006150e100fa
:100a40002f0032006120e100310032008585550021
:100a5000eb07b00009002000080420000500370063
:100a60000804440089844c000a0031000603430056
:100a700087834b000001530081815b00f8ff330046
:100a80000203be000800a0000804440089844c0052
:100a9000f6ff3900c639dd00830173000100320022
:100aa000130020008904d1000884d3000998a30012
:100ab000050032000800a7000300a0008904d1004f
:100ac0000884d3008b05e8008904d1000884d30092
:100ad0000001eb000281d2008900070001f0a100b3
:100ae0000cf0a70001f0a000d10037006420e10065
:100af000d30032000801be000200be00f7ff37003d
:100b00006120e100ce0032006000b800f3ff370042
:100b10000000200001f82700f0ff3700839f6800e5
:100b20000100e00002003d0060001000e0801800bd
:100b30000300e00002003d0060011100e0811900a7
:100b4000d10007004f00e00002003b0060001000f1
:100b5000e080180000000600889fbe008a9fbe004b
:100b60000003be008c0007008505780082815200da
:100b7000020020006220e10004003a00f307b10007
:100b8000040035007718e100040035000600be00bf
:100b9000140037006000b8000f003700f50f200088
:100ba000faff2f008502d1000a85d3008301e900f6
:100bb000fcff3b008184620000046500890f740023
:100bc000f2ff32008582ea000a85ea008184620031
:100bd000000465004a00070007f0a70001f0a0002c
:100be0000081eb000200e0004f05be004f04be0094
:100bf0000000060014002000140137000001be00b0
:100c0000650007000470a70003f0a1006509b100aa
:100c1000160032000d0035006828e100060035009e
:100c2000f0ff2f00f1ff27000300e00013003b005e
:100c300001002800000005000000400081804800fd
:100c40008502e900fcff3a0008003700f88f4200f7
:100c500002003c008000eb00000005008100d10094
:100c60000080d3008502e800fcff3a000300e000aa
:100c700002003b0060001000e08018000000060049
:100c80000001be00440007000470a70003f0a100ab
:100c900003f8a30013003a006509b1001000320008
:100ca000090035006928e100020035000100280034
:100cb0000000050000004000818048008502e90036
:100cc000fcff3a0000000600f88f420005003500e6
:100cd0008100d1000080d3008502e800fcff3a00cb
:100ce000000006008000eb00000005004f89de00d8
:100cf00082017800f00037006011b800fe00370074
:100d000081002000618055000b003d000b00200099
:100d100061fe2f000100e1001d003400828171009e
:100d2000610164008904d1000884d3000000e80058
:100d3000faff3a00710020006100640003007000b7
:100d4000020060000900320061044400e0844c00ad
:100d50000988a500050032008b05e8006808e1005d
:100d600002003a008904d1000884d300f20f200069
:100d70000258e10005003d00c75ddd00f907b20043
:100d80008980750008007800000006000bf8270035
:100d90008b00780000000500c70ade00f107b200f2
:100da000f50fb20008003200e1cf4200020032002d
:100db0000170a00024000500810f700001003200c6
:100dc0000408050044000500810f700002003a008d
:100dd000140005008502e9000000400081c04800c1
:100de000fcff3b000170a000240005000004be00d1
:100df000e9ff07000003be000405be000200be00bc
:100e0000e5ff0700844f7500000006000200be00e9
:100e10006450e100050036006420e1000200360065
:100e20000968a30001003a000800be000160a000ac
:100e30004f0678004f05be004f04be0000000600bc
:100e4000f0ff2f00f1ff2700f9ff3700811f780026
:100e50000100e00002003d0060001000e08018008a
:100e60000300e00002003d0060011100e081190074
:100e7000150007004f00e00002003b00600010007a
:100e8000e0801800000006006022b8000602200082
:100e90000000d0008180d2000482d2008582d2007e
:100ea0000000a0000202520083825a0003003100b9
:100eb0000202420083824a000000a1000603e9000a
:100ec000f3ff3a0000000600efff07000400be0039
:100ed0000000060003f0a200889fbe008a9fbe00ab
:100ee0008c1f7800c1ff0700c8ff33006450e10089
:100ef0004f0032006420e1005200320003826c0097
:100f000007003b000905d0000306d000820f540003
:100f10000c065d00020039000200320089017800f1
:100f2000030678008582550004003d000003fd00a3
:100f30008103fd008502ea008b854200840f720068
:100f400002003b0060001000e08018006011b80053
:100f50000005eb007a28e1000a003900060078005d
:100f6000c75ddd00f707b200878075002d003700f0
:100f7000828171000a017800610560008180d100e2
:100f80000080d3008502e900f9ff3b000604400021
:100f90008784480002003b0060041400e0841c00c9
:100fa0000988a300070032008a81710082817100e4
:100fb000610164008904d1000884d3008b05e80036
:100fc000170037000978a30013003a000b00e00077
:100fd000130034008b05e9000804440089844c00a8
:100fe0000a4474000978a3000d003a000b00e000e9
:100ff000070034008b05e9000804440089844c0094
:1010000001003a000b0020000978a300f7ff32002e
:101010000001eb0002003700828171000a017800b4
:1010200037ff07000cf0a70001f0a00080ff370099
:101030006420e10002003a00838f6c0080ff3300df
:101040000801be000200be0079ff3700889fbe0085
:101050008a9fbe00841f780064ff07004f0078005d
:1010600011003300f0ff2f00838f6c0006003b005f
:10107000040565000a00a7000800370009f0a60073
:101080001000200008003700820f5400838f5c009e
:10109000030039001000200001003e000000200085
:1010a00009f0a7000000ea004f05be004f04be0093
:1010b0000000e00000000600881f780003047800ac
:1010c0000300e00007003d0060001000e080180011
:1010d00060011900e081190002003b0001f02d00c1
:1010e000030037000400070008f0a70001f0a0008b
:1010f0004f04780000000600889fbe008a9fbe0053
:101100000082700004027100048271002600320027
:101110000004be000200be006011b8006b09200090
:10112000950220000182cf000a0039000541b1007c
:101130000082cf00070039000541b1000982cf00cd
:10114000040039000541b1000882cf0001003900d8
:101150000541b10005425200120032000a003b0076
:1011600082817100610164008100d1000080d300a0
:101170008984d3000884d3008b05e8000442e8008a
:10118000f7ff3a00070037000804440089844c0048
:1011900000004800818048008b05e9000442e90016
:1011a000f9ff3a00d6fe07004f05be004f04be000f
:1011b000000006000002780002003700315a780073
:1011c0000201e900e00f5100fcff3a0000000600b8
:1011d0000002780084027800050278000043eb00ea
:1011e000b44f1300fbff3a0031427800845a780074
:1011f000e04f5200fcff3a000000060000027800b9
:101200008042eb00b4cf1200fdff3a000080ea00fc
:0812100000004200000006008e
:020000040000fa
:10121800646f00006e5f000061760000746f00006c
:101228005f31000000660000706b000031000000b4
:10123800763100002e300000003100002e30000012
:1012480000630000616e0000310000006c65000062
:10125800616400005f6300006f6e0000747200003c
:101268006f6c00006c650000720000006869000087
:10127800676800005f6500006467000065000000a3
:101288006c6f0000775f0000656400006765000010
:10129800007300005f7000006f6900006e7400004a
:1012a80032000000735f0000706f0000696e00007c
:1012b80074340000007300005f7000006f69000064
:1012c8006e74000036000000735f0000706f00004d
:0c12d800696e0000743800000000000087
:020000040000fa
:1012e4000200fa0081b22000100022004f0a070019
:1012f400a1b22000200022004c0a0700c1b2200045
:1013040030002200490a070001b3200040002200f7
:10131400460a070041b3200050002200430a070098
:101324000002eb00040f78000a0037001e02780068
:10133400c222dd0084b720008482420064002200bf
:101344001e0242008500780004007800370a070076
:101354001e0fe8001e027800e70f5200f3ff34006e
:101364000002eb00040f78001d003700865980004e
:10137400975980001e027800c222dd0084b7200045
:10138400048242001402be000402530085825b0002
:101394001e037800c233dd0086b3200006834300b9
:1013a400048bbe001e027800c222dd0084b7200038
:1013b400048242001403be00a4598000b559800081
:1013c4000602420087824a001e037800c233dd0011
:1013d40086b5200006834300048bbe001e0fe80080
:1013e4001e027800e70f5200e0ff34000080fa008c
:1013f400000006000600fa00200798002e02900064
:101404006123b900f4ff2d00f5ff2f00060242000e
:1014140087824a00c600200007002000860f520081
:10142400878f5a000a013e00046001000c00370057
:101434000f00370012003700150037003b0037005b
:101444006300370076003700890037009c003700be
:10145400af003700c2003700d5003700e80037007e
:1014640081b2200010002200f0090700f8003700c4
:10147400a1b2200020002200ec090700f40037008c
:10148400c1b2200030002200e8090700f000370054
:1014940001b3200040002200e40907000002eb0031
:1014a400040f78001d00370086598000975980008a
:1014b4001e027800c222dd0084b7200004824200ac
:1014c4001402be000402530085825b001e037800f0
:1014d400c233dd0086b3200006834300048bbe00c4
:1014e4001e027800c222dd0084b72000048242007c
:1014f4001403be00a4598000b559800006024200be
:1015040087824a001e037800c233dd0086b52000be
:1015140006834300048bbe001e0fe8001e02780001
:10152400e70f5200e0ff3400c900370041b3200048
:1015340050002200bd0907000002eb0014079800c8
:101544001f00370086598000975980001e029000c2
:10155400c222dd0084b72000048242001402be00cf
:101564000402530085825b001e039000c233dd0039
:1015740086b3200006834300048bbe001e02900045
:10158400c222dd0084b72000048242001403be009e
:10159400a4598000b55980000602420087824a009f
:1015a4001e039000c233dd0086b52000068343008d
:1015b400048bbe001e0290000402e8001407980089
:1015c4001e029000e70f5200deff3400a000370037
:1015d40081b720006000220094090700865980002a
:1015e40097598000c45b8000d55b800004025300df
:1015f40085825b00c4598800d5598800c65b800089
:10160400d75b8000a4598000b559800006024200cf
:1016140087824a00c45a8800d55a88008c00370053
:10162400c1b720007000220080090700865980009d
:1016340097598000e45b8000f55b8000040253004e
:1016440085825b00e4598800f5598800e65b8000d8
:10165400f75b8000a4598000b5598000060242005f
:1016640087824a00e45a8800f55a880078003700d7
:1016740001b82000800022006c0907008659800010
:1016840097598000045c8000155c800004025300bc
:1016940085825b00045a8800155a8800065c800025
:1016a400175c8000a4598000b559800006024200ee
:1016b40087824a00045b8800155b88006400370059
:1016c40041b8200090002200580907008659800084
:1016d40097598000245c8000355c8000040253002c
:1016e40085825b00245a8800355a8800265c800075
:1016f400375c8000a4598000b5598000060242007e
:1017040087824a00245b8800355b880050003700dc
:1017140081b82000a00022004409070086598000f7
:1017240097598000445c8000555c8000040253009b
:1017340085825b00445a8800555a8800465c8000c4
:10174400575c8000a4598000b5598000060242000d
:1017540087824a00445b8800555b88003c00370060
:10176400c1b82000b000220030090700865980006b
:1017740097598000645c8000755c8000040253000b
:1017840085825b00645a8800755a8800665c800014
:10179400775c8000a4598000b5598000060242009d
:1017a40087824a00645b8800755b880028003700e4
:1017b40001b92000c00022001c09070086598000de
:1017c40097598000845c8000955c8000040253007b
:1017d40085825b00845a8800955a8800865c800064
:1017e400975c8000a4598000b5598000060242002d
:1017f40087824a00845b8800955b88001400370068
:1018040041b92000d0002200080907008659800051
:1018140097598000a45c8000b55c800004025300ea
:1018240085825b00a45a8800b55a8800a65c8000b3
:10183400b75c8000a4598000b559800006024200bc
:1018440087824a00a45b8800b55b88000000000022
:101854000080fa00000006000800fa002007980043
:10186400310798006022b800048fbe006022b800df
:10187400048fbe000400370014002000050020007f
:101884001e0f42005e974a002e029000be02900096
:101894001e03be00840f5300858f5b00f6ff3500e6
:1018a4000080fa00000006000e00fa0040079800cd
:1018b40051079800620798006e029000eb02420004
:1018c4000042eb00844a78000042eb00044f7800a9
:1018d400a4002000140798004e029000de0290003d
:1018e400e00f5200e08f5a0008003a001e029000f8
:1018f400ee0290008482420004c3b300844a78005c
:101904001e0290000402e900140798004e029000a1
:10191400de029000e00f5200e08f5a0029003d00e3
:101924004e029000de02900060021200e0821a0073
:10193400440798005507980000c2eb00044f780054
:10194400200037004e029000de0290002407980029
:10195400350798002e029000be029000a2002000dd
:10196400030020000400be0037fd07000002be0093
:1019740024079800350798001e029000ee0290009c
:10198400848242002e029000044278000443b00096
:10199400844a78001e0290000402e90014079800ab
:1019a4004e029000de029000a200200003002000fe
:1019b4000400be0058fc07000002be004407980063
:1019c400550798004e029000de029000e00f52008e
:1019d400e08f5a00dbff3c001e427800e14f4200da
:1019e40008003a001e029000ee0290008482420039
:1019f400d4c2b300844a78001e0290000402e900b5
:101a0400140798001e0290000402e8000400780005
:101a14000080fa00000006000800fa001007980091
:101a240021079800320798000e8fe8001e02780004
:101a340014427800be029000844a78003e0290006e
:101a44008402e8001e02e80014427800844a780008
:101a54003e0290008482e8001e82e800144278006e
:101a6400844a78003e029000e30242001e0378009c
:101a74006302430014427800844a78000080fa002c
:101a8400000006000000fa000002eb0024088800b1
:101a9400240880000440a0000450a000240888000a
:101aa40004a62e0014088800a404800004c0a0002a
:101ab40004d0a10004e0a100a40488008460a9006b
:101ac4008c60a80005e1a8000080fa000000060070
:101ad4000000fa000002eb008408880084088000fb
:101ae4000440a0000450a00084088800842520003d
:101af40064088800b40480000480a0000490a0005e
:101b040004a0a100b404880084c0a9008cc0a8006b
:101b140011e1a8000080fa00000006000000fa00ad
:101b24000002eb00f4088800f40880000440a000e0
:101b34000450a000f4088800c4242100d4088800bc
:101b4400f40480000440a1000450a1000460a0003b
:101b5400f404880086a0a9008ea0a8001fe1a800b4
:101b64000080fa00000006000400fa000002eb0006
:101b7400040f78000002eb0014079800e4c2a900e7
:101b8400e4e2a900e502a800007d20000100200095
:101b940031ff0700c4032900040f7800f4fb2d0073
:101ba400140798009e0090001e0078008dfb07002b
:101bb4000080fa00000006000200fa00000f78001e
:101bc4008740a9004511800004402000048262007f
:101bd400e00f5200030032001e0278005411880006
:101be40004003700f40f20001e0262005411880024
:101bf400000000003411800062026200e00f520015
:101c0400fcff3a000000000035048000044020007e
:101c140004826200e00f5200fbff32005411800086
:101c2400040f78000080fa00000006000000fa00ab
:101c340026c2a9000002eb00541188000000000035
:101c44003411800061026200e00f5200fcff320098
:101c54003411800061026200e00f52000c00320077
:101c640026c2a900451180000440200004826200bd
:101c7400e00f520003003200541180000442780047
:101c8400040037005411800004427800010037003a
:101c940000c2eb00044078000080fa000000060057
:101ca4000000fa00e582a900afff07000080fa00f7
:101cb400000006000000fa00e582a900e982a900fc
:101cc40060002000bcff0700e582a900e982a800ab
:101cd4000080fa00000006000800fa0010079800cf
:101ce4002107980032079800f2ff0700e582a90057
:101cf400e982a90020002000afff07001e02900027
:101d04004822de0004007800abff07009e0290002a
:101d1400f40f20000482620004007800a6ff07008c
:101d24000002eb00040f7800080037001e02780060
:101d3400ae02900004824200144278000402fb00c8
:101d4400040078009cff07001e0fe8003e0290008c
:101d54009e027800848f5200f4ff3500e582a900ca
:101d6400e982a8000080fa00000006000800fa00da
:101d7400881f780010079800210798003207980000
:101d8400e582a900e982a900300020008aff07004b
:101d94001e0290004822de000400780086ff07003f
:101da4009e029000f40f2000048262000400780078
:101db40081ff07000002eb00040f780007003700e2
:101dc4001e027800ae0290000484420097ff0700d0
:101dd40000427800044c78001e0fe8003e02900098
:101de4009e027800848f5200f5ff3500e582a90039
:101df400e982a8004f0478000080fa000000060081
:101e04000200fa00e582a900e982a900500020003e
:101e140069ff070085ff070000427800044f78003f
:101e2400e582a900e982a8001e42780004407800f7
:101e34000080fa00000006000600fa000e82e800a6
:101e440042002000840078000000eb00c7ff070078
:101e54000e8fe8001e0278001402be000400be00cb
:101e64000080fa0000000600a600fa007b0c0700c0
:101e740094e6260065062000048fbe0074c0b300fb
:101e840044479800e4002000340798000042eb0027
:101e9400044f980064024700640242000400780082
:101ea400d5fc070000027800e4024700e482420007
:101eb40004824200b2002000c1902800040078008f
:101ec400bbfc07000042eb00245798006402470063
:101ed4006e02420004007800c7fc0700000278008c
:101ee400e4024700ee8242000482420052002000d5
:101ef4007191280004007800adfc07000042eb005b
:101f0400645798006402470072024200040078009b
:101f1400b9fc070000027800e4024700f2824200a4
:101f24000482420052002000c1912800040078007d
:101f34009ffc07000042eb00245f98006402470006
:101f44007602420004007800abfc0700000278002f
:101f5400e4024700f682420004824200420020006c
:101f6400119228000400780091fc07000042eb0065
:101f7400545f98006402470079024200040078002c
:101f84009dfc070000027800e4024700f982420049
:101f9400048242005200200051922800040078007c
:101fa40083fc070064024700030220000401780058
:101fb400f10020000e0078000a06070000027800f5
:101fc400e00f520002003a000042eb001501370016
:101fd400540020000500200034179800451798008d
:101fe400e4f6260045562600541798006517980015
:101ff400f49526004506200074179800051f9800e4
:10200400650220008e824200a40220000e024200db
:10201400430020000501780001012000040078003d
:10202400f005070014002000050020003417980074
:10203400451798002403200004024700a5922800b5
:102044000f000900355a7800650220008e82420094
:10205400240320000e024200430020000501780002
:102064003100200004007800de050700843e2000d3
:102074000500200034179800451798002404200018
:102084000e0242001636260037562700068abe0086
:10209400640242002617260037962700068abe00ef
:1020a400640242008042eb00054a78000402e80022
:1020b400650220008e824200240420000e024200a9
:1020c400430020000501780001012000040078008d
:1020d400c405070004352c000500200034179800bf
:1020e40045179800b404200004024700a593280073
:1020f40009000900355a7800650220008e824200ea
:10210400b40420000e0242004300200005017800c0
:102114000101200004007800b205070004f7220042
:10212400c5ff2f0034179800451798005405200068
:10213400040247004594280008000900355a780035
:10214400650220008e824200540520000e024200e7
:1021540043002000050178000101200004007800fc
:10216400a0050700046a2800150020003417980011
:1021740045179800e40520000e02420036f72500ba
:1021840007f72600068abe006402420096e626008f
:1021940047172300068abe00640242008042eb0017
:1021a400054a78000402e800650220008e8242009d
:1021b400e40520000e0242004300200005017800df
:1021c40001012000040078008605070004352c0076
:1021d4000500200034179800451798007406200065
:1021e40004024700d594280008000900355a7800f5
:1021f400650220008e824200740620000e02420016
:10220400430020000501780001012000040078004b
:102214007405070004c42900050020003417980041
:1022240045179800040720000e02420036f72500e7
:1022340007f72600068abe006402420096e62600de
:1022440047372300068abe00640242008042eb0046
:10225400054a78000402e800650220008e824200ec
:10226400040720000e02420043002000050178000c
:1022740001012000040078005a05070004532700d8
:102284000500200034179800451798009407200093
:10229400040247006595280008000900355a7800b3
:1022a400650220008e824200940720000e02420044
:1022b400430020000501780001012000040078009b
:1022c4004805070004e224000500200034179800a4
:1022d40045179800240820000e02420036f7250016
:1022e40007f72600068abe006402420096e626002e
:1022f40047572300068abe00640242008042eb0076
:10230400054a78000402e800650220008e8242003b
:10231400240820000e02420043002000050178003a
:1023240001012000040078002e050700047122003a
:10233400050020003417980045179800b4082000c1
:1023440004024700f595280008000900355a780072
:10235400650220008e824200b40820000e02420072
:1023640043002000050178000101200004007800ea
:102374001c0507008438210005002000341798004c
:1023840045179800440920000e02420036f7250044
:1023940007f72600068abe006402420096e626007d
:1023a40047772300068abe00640242008042eb00a5
:1023b400054a78000402e800650220008e8242008b
:1023c400440920000e024200430020000501780069
:1023d4000101200004007800020507006022b80013
:1023e4003417980045179800d409200004024700c8
:1023f4008596280008000900355a780065022000f7
:102404008e824200d40920000e02420043002000c4
:10241400050178000101200004007800f1040700a0
:1024240014c0b300044078000080fa0000000600e5
:102434000400fa00000f7800110798000060fe0005
:10244400a00f070016fe070087fe0700a4fb070085
:10245400270807008d0807009dfd0700affd070052
:102464000c0f07000060fe0000242400f10020008f
:10247400f9fc0700fbff37003400f800881f7800e0
:1024840008002000a80188004f0478000000fa002a
:102494008460a9000080fa003400f90000400600be
:1024a4003600f800809fbe00829fbe00849fbe005d
:1024b400869fbe003400f80000002000a0018800c0
:1024c4000000fa0084c0a900390907009609070032
:1024d4000080fa003400f9004f03be004f02be0032
:1024e4004f01be004f00be003600f9000040060058
:1024f4003600f800809fbe00829fbe00849fbe000d
:10250400869fbe003400f80000002000a00188006f
:102514000a00fa0086a0a90062024700030009002d
:10252400001aeb00980f07000042780004c2ea008a
:1025340024479800bb0f07000042780004c2ea0059
:1025440034479800e90e0700004278004447980099
:10255400e60e070000427800544798000040eb0064
:10256400690f0700004278006447980010c0b30068
:10257400650f0700004278007447980020c0b3003c
:10258400610f070000427800044f980030c0b30088
:102594005d0f070000427800144f980004482000a3
:1025a400040f7800445980001e0f42000e82e80098
:1025b40022c0b300840078001e0078009a08070047
:1025c400be4290002e42900085407800044078007e
:1025d400400c07000080fa003400f9004f03be00ed
:1025e4004f02be004f01be004f00be003600f9008e
:1025f400004006003600f800809fbe00829fbe00a7
:10260400849fbe00869fbe003400f80000002000b6
:10261400a00188000a00fa008760a9009603a900b7
:102624009623a900841c80006e026200ee0f520003
:1026340002003a0096c3a90029003700041c800058
:102644004222de00f57f200005026200040f7800bc
:102654000e82e800040078009109070045598000c3
:1026640004602000048242009e0f520005003a00dc
:102674000e82e80012002000840078001e0078001a
:10268400f70007000e82e800840078001e0078003e
:10269400920d07000e82e800840078001e00780086
:1026a400a70c07000e82e800840078001e00780062
:1026b4004f0d0700f45e80000402e800f45e880019
:1026c400f45e8000f20f520003003a00d40d0700bc
:1026d4000002eb00f45e88008ee3a9007ee3a9000b
:1026e4000080fa003400f9004f03be004f02be0020
:1026f4004f01be004f00be003600f9000040060046
:102704003600f800809fbe00829fbe00849fbe00fa
:10271400869fbe003400f80000002000a00188005d
:102724000a00fa0088c0a9005604a9005624a9008a
:10273400842280006e026200ee0f520002003a0012
:1027440056c4a90014003700042280004222de008f
:10275400f57f200005026200040f78000e82e80075
:1027640004007800570907004559800004602000e0
:10277400048242009e0f520005003a000e82e800d7
:1027840022002000840078001e007800b4000700b6
:102794004ee4a9003ee4a9000080fa003400f900e8
:1027a4004f03be004f02be004f01be004f00be00eb
:1027b4003600f900004006000800fa00204798009f
:1027c400314798002207980063479800744798009f
:1027d4002e4290000482fb004822dd000408b00071
:1027e400040f78003e4290000482fb001e0f42005a
:1027f4007e429000e14f520005003a006e41900085
:10280400ae0090001e00780007080700040037009f
:102814006e419000ae0090001e007800330807005f
:102824000080fa00000006000800fa002047980023
:1028340021079800624798007347980004582000c5
:10284400040f78002e4290000482fb001e0f420009
:102854007e429000e14f520005003a006e41900024
:10286400ae0090001e007800ef0707000400370058
:102874006e419000ae0090001e0078001b08070017
:102884000080fa00000006002c00fa00600f980097
:10289400710f9800021798001317980024179800d6
:1028a4003517980046179800276f98004459800000
:1028b400044f78006402470003000900001aeb008b
:1028c4007c024700140798001e029000144278000e
:1028d400444798001e0290000402e8001442780065
:1028e400544798001e0290000482e80014427800c5
:1028f40064479800040220000e0242001407980066
:102904001e02900014427800744798001e02900042
:102914000402e80014427800044f98001e0290005c
:102924000482e80014427800144f9800e40247003f
:102934000efa970023c0b300050178009e4078008a
:1029440010c0b3009cff07006c024700030009009d
:10295400001aeb002e1290000402ea0024179800db
:10296400440220000e024200140798001e02900048
:1029740014427800444f98001e0290000402e800bc
:1029840014427800544f98002e1290000402ea007a
:1029940024179800440220000e02420014079800f5
:1029a4001e02900014427800644f98001e029000aa
:1029b4000402e80014427800744f98006402200076
:1029c4000e024200140798001e0290001442780080
:1029d400045798001e0290000402e8001442780094
:1029e40014579800840220000e0242001407980035
:1029f4001e02900014427800245798001e02900092
:102a04000402e8001442780034579800ec024700ae
:102a14000efa970013c0b300050178009e407800b9
:102a240020c0b30064ff07007402470003000900dc
:102a3400001aeb002e6a900044579800f4024700f5
:102a44000efa97008041eb00050178009e40780063
:102a540030c0b30058ff07000080fa0000000600f1
:102a64000600fa00000f780011079800424798000a
:102a7400047820009e02620004602000848f5200cb
:102a840032003a004e4290000440780026ebb70032
:102a940004712200e45e88001e02900094427800d3
:102aa40004c4b30084cf520004003a002468210017
:102ab4001e00900004000100250037001e02900053
:102ac400144278008402fb00040f20008482620018
:102ad40004022000848f520004003a00e45a2100ca
:102ae4001e00900004000100190037001e0290002f
:102af400144278008402fb00040e20000482620069
:102b0400e00f520004003a0024b421001e0090009b
:102b1400040001000e0037001e0290009442780069
:102b240004c6b30084cf5200050032001e02900098
:102b34009442780004c7b30084cf520004003a00e2
:102b440044ad210004000100010037000000000032
:102b54000080fa00000006001600fa00200f98001a
:102b640044598000044f78002e0a9000630242000a
:102b740014427800144798002e0a90000402e800da
:102b8400144278008402fb002e0a90000482e800bc
:102b9400144278000402fb004822dd000482420053
:102ba400140798002e0a9000144278008402fb0057
:102bb400340f20008482620004022000848f5200bb
:102bc40023003a001e029000145988001e4290000f
:102bd4000482fb00245988002e0a900064024200fb
:102be400144278000402fb00045988000002eb0040
:102bf400d45e880004c6b300444f98002e0a9000a7
:102c04000402e80014427800544f98002e0a900001
:102c14000482e80014427800644f98002e0a900061
:102c24006302420014427800744f980064b220009a
:102c340014427800ec024700844178000041eb0024
:102c4400850078001e407800f7fe07002a00370050
:102c54001e4290000482fb00e20f52000300320087
:102c6400e40f52000a003200230037002e0a9000bd
:102c74006402420042002000840078001e0090009c
:102c8400900407001e009000daf9070004003700e2
:102c940084a721002e089000040001000000000019
:102ca40004c6b300444798002e0a90000402e800ca
:102cb40014427800544798002e0a90000482e800d9
:102cc40014427800644798002e0a90006302420080
:102cd400144278007447980064b2200014427800cb
:102ce400e4024700844178000041eb00850078004d
:102cf4001e407800ccfe07000080fa0000000600a9
:102d04000600fa00200798002e0290006302420099
:102d140014427800044f78002e0290000402e80068
:102d2400144278008402fb002e0290000482e80022
:102d3400144278000402fb004822dd0004824200b1
:102d4400140798009e02900004002200848f520011
:102d540004003a00046e21002e00900004000100db
:102d6400140037009e4278000582fb00e20f5200f7
:102d740008003200e40f52000a003200e10f520052
:102d84000c003a00049621002e009000040001007b
:102d940008003700a48321002e00900004000100e5
:102da40004003700849c21002e00900004000100e0
:102db400000000000080fa00000006003a00fa005b
:102dc400401f980044598000044f98000e02780078
:102dd4000403b00003000900001aeb004e1a90002f
:102de4000402e800144278008402fb004e1a9000aa
:102df4000482e800144278000402fb004822dd004b
:102e040004824200540798004e1a90006302420064
:102e1400144278000402fb00640798006e02470025
:102e2400840078005e0090008003070000027800b0
:102e3400140798001e029000e00f5200890032002f
:102e44004e1a90000402e8001442780014779800a7
:102e54004e1a90000482e800144278002477980007
:102e64004e1a9000630242001442780034779800ae
:102e74006e0290000500200066002000070020007c
:102e8400860f5200878f5a0038003e00046001000c
:102e9400060037000b003700110037001700370019
:102ea4001d0037002300370029003700b4c4b300e5
:102eb400047798006e0f4700140020001407980050
:102ec4002a003700b4c4b300047798006e024700a8
:102ed400048fe80024002000140798002300370022
:102ee40014c4b300047798006e024700640f4200d4
:102ef400a4002000140798001c00370034c4b30059
:102f0400047798006e0247006e0f420044002000d0
:102f1400140798001500370034c4b30004779800f0
:102f24006e024700720f420044002000140798000c
:102f34000e00370074c4b300047798006e02470093
:102f4400760f420034002000140798000700370071
:102f540034c4b300047798006e024700790f42002e
:102f64004400200014079800000000008e729000b6
:102f740014c4b30084cf52001d003a001e02900016
:102f840004427800447798000042eb00547798009c
:102f94000002eb00240798000002eb0024079800cd
:102fa4000a0037002e0290001e02420014427800ec
:102fb4002e03900085a5200085024300844a7800f2
:102fc4002e0290000402e80024079800ae0290004c
:102fd4001e029000848f5200f2ff39000002eb00c1
:102fe400d45e88001e029000045988001300370044
:102ff4000002eb00340798000002eb00340798004d
:103004000a0037003e029000e40242003e029000b3
:103014001e02420014427800850247008472980020
:103024003e0290000402e80034079800be029000bb
:103034001e029000848f5200f2ff390064b2200017
:1030440014427800050320008e82420084417800f7
:103054000041eb00850078000e489000f2fd070067
:1030640001003700000000000080fa0000000600a4
:10307400ac00fa00509798004459800044479800e7
:103084006c02470003000900001aeb005e929000f6
:103094000402e800144278008402fb005e9290006f
:1030a4000482e800144278000402fb004822dd0098
:1030b40004824200340798003e0090006b0307002e
:1030c40000027800044f98007402470084007800de
:1030d4003e009000d50207000002780054079800d3
:1030e4005e029000e00f5200710032005e92900088
:1030f4000402e80014427800544f98005e92900055
:103104000482e80014427800644f98005e929000b4
:103114006302420014427800744f98005e029000eb
:10312400e40f52001e00360014c4b300444f98004c
:103134005e02900004427800045798005e029000fa
:103144004822de0004427800145798000002eb0085
:10315400040f78000002eb00040f7800070037002a
:10316400740247001e0242001442780085a5200024
:103174009e824200844a78001e0fe8009e02780076
:103184005e029000848f5200f5ff39000002eb00cc
:10319400d45e88005e029000045988003b0037002a
:1031a4000e4a90000402fb006123b900d4ff2f00f3
:1031b400f5ff2f000602420087824a00d600200055
:1031c40007002000860f5200878f5a001b003e0024
:1031d400046001001300370018003700170037009f
:1031e40013003700150037000b00370013003700b9
:1031f4001200370011003700100037000f003700ad
:103204000e0037000d0037000000370074c4b3000f
:10321400444f98000900370034c4b300444f980069
:1032240006003700b4c4b300444f980003003700cd
:10323400b4c4b300444f9800000000000002eb0047
:10324400140798000002eb00140798000b003700e5
:103254001e029000e4024200740347001e02900024
:10326400040243001442780085024700c44a9800cf
:103274001e0290000402e800140798009e029000c9
:103284005e029000848f5200f1ff390064b2200086
:1032940014427800ec024700844178000041eb00be
:1032a400850078004e4090005ffd07000100370064
:1032b400000000000080fa00000006001000fa0080
:1032c4007007980044598000044f78007e029000f3
:1032d4000402e800144278008402fb007e0290009d
:1032e4000482e800144278000402fb004822dd0056
:1032f40004824200140798001e009000db020700bd
:1033040000027800444798004e429000e14f42008a
:103314001b003200b4c4b300544798007e029000ee
:103324000402e80014427800644798007e0290008a
:103334000482e80014427800744798007e029000ea
:103344006302420014427800044f98004e429000f9
:10335400144f98000042eb00244f980064b2200000
:1033640014427800e5024700844178000041eb00f4
:10337400850078001e4078002bfd0700010037000f
:10338400000000000080fa00000006002e00fa0091
:103394006017980044598000044f78006500470086
:1033a400070009000058eb006e1290000402e800c8
:1033b400144278008402fb006e1290000482e8003c
:1033c400144278000402fb004822dd00048242001b
:1033d400140798006d024700840078001e009000d6
:1033e4004802070000027800444798004e429000cb
:1033f400e04f52003a0032006e1290000402e800de
:1034040014427800644798006e1290000482e80029
:1034140014427800744798006e12900063024200d0
:1034240014427800044f98004e429000e44f52003a
:1034340010003e0045c0b3004e42900004c252004a
:10344400250020000522dd003444b00054479800d4
:103454005e4a9000144f98006e4a9000244f9800e2
:103464007e4a9000344f98000e529000444f9800ca
:103474001200370014c4b300544798004e42900021
:10348400144f98000042eb00244f98000042eb00d8
:103494000440780058eab7006d02470084007800c1
:1034a40080a5200049f707000002eb00d45e8800e5
:1034b4004e4290000482fb000459880064b220004c
:1034c40014427800e5024700844178000041eb0093
:1034d400850078001e407800d3fc07000100370007
:1034e400000000000080fa00000006000c00fa0052
:1034f400500798005e0290000402e800144278002d
:103504008402fb005e0290000482e800144278000a
:103514000402fb004822dd000482420014079800e4
:103524005e029000144278000402fb006c02620008
:1035340042a2de00444798000002eb00040f78002a
:10354400070037001e02780064024200de02900089
:103554000482420014427800544798001e0fe80089
:103564004e4290000482fb00640212009e0f52003f
:10357400f4ff3c004e4290000482fb0064021200ff
:10358400840247000042eb00d442980065024700e1
:10359400840078001e0090009a0207000080fa0060
:1035a400000006000c00fa004459800024479800eb
:1035b4006402470003000900001aeb00d45e800097
:1035c400e802420004598000848f52001000360043
:1035d40014c0b30044479800d45e8000844278004d
:1035e400045980000442780004c252006742420039
:1035f400344798004e429000844278003e42900046
:103604000442420004c242004447980002003700ca
:103614000042eb004447980014002000040f780097
:103624000a003700d55e800084a520000482420091
:1036340014427800640347001e034300044b7800df
:103644000502e800d45e88001e0fe8001e02780020
:10365400e70f5200f3ff340064b2200014427800f4
:10366400e4024700844178000041eb0085007800c3
:103674002e4090006cfc07000080fa000000060059
:103684001200fa00000f98004459800014079800b3
:103694000002eb00040f78000e0a90001442780038
:1036a4000402fb006102620004427800e04f520011
:1036b4002e0032000e0a9000144278000402fb002f
:1036c4006e0262000482d100444798000c00370067
:1036d400d55e80001e0278000402e8000e0b900004
:1036e400040243001442780086a5200006834200a9
:1036f400044b78000502e800d45e88001e0fe80041
:103704004e4290000482fb00670212009e0f52009a
:10371400efff3c0005598000145980000501780032
:1037240081a5200004007800e601070014598000f8
:10373400040078002ff707000f003700d55e8000e3
:103744001e0278000402e8000e0b900004024300fd
:103754001442780086a5200006834200044b7800ba
:103764000502e800d45e88001e0fe8001e027800ff
:10377400e60f5200f1ff340024b220003407980011
:1037840004c6b300044f98003e029000144278002f
:10379400144f98003e0290000402e800144278009e
:1037a400244f98002459800004427800344f980034
:1037b40064b2200014427800844278001e02900013
:1037c4000442780068034700854178000041eb001b
:1037d400860078000440780013fc07000080fa009b
:1037e400000006004000fa00889fbe00401f9800b9
:1037f400217f9800621f9800731f9800720247008f
:10380400040078000d0607002e7a9000246f9800bb
:10381400b3020700000278000402e800341798009d
:103824007e1a9000050020000400be0031f5070058
:103834000004be002e5a90000482fb00cfa2de00da
:103844000400be0028f507000002be000401be000b
:103854000800be006ef407000002be004407980092
:10386400550798004e009000de00900060f40700b9
:103874000002be0044079800550798004e009000cf
:10388400de009000fdf407000002be000442780050
:10389400044078006b06070000027800040f7800eb
:1038a4001e027800e10f420002003a000042eb00e1
:1038b400a00037001e027800441798000002eb00b5
:1038c40014079800110037002e5a90008482fb00e0
:1038d4001e02900004aab90004027800ee1a9000b7
:1038e40004824200840078001e0078004707070025
:1038f4001e0078000806070000027800040f780014
:103904001e0290000402e800140798001e029000b2
:10391400cfa2de000400be00f3f407000002be00e4
:1039240018c0b3004e019000de0190000400be00f8
:10393400aff4070000027800e00f520001003500e8
:103944000044eb00e04f5400dfff3a007c06070020
:1039540000027800240798002e029000e10f420034
:1039640002003a000042eb00720037004e1890004b
:1039740021f6070000027800e30f52000e003e001b
:103984000042eb0024679800240220000e0242004b
:10399400ce189000040078000cf6070024022000e2
:1039a4000e024200840078002e0090009e0607005c
:1039b40014c0b3005f003700f4c0b300246798005c
:1039c4004e1890000cf60700000278000402e8008c
:1039d400050020000400be00c6f407000004be0079
:1039e4003e5a90000482fb00cfa2de000400be0019
:1039f400bdf407000002be000401be000800be00c2
:103a040003f407000002be006407980075079800dd
:103a14006e009000fe009000f5f307000002be0067
:103a24000400be0074f407000002be000402780023
:103a340064179800c40220000e024200040f98008c
:103a44000e0a900014427800346798000e0a900021
:103a54000402e80014427800446798000042eb0036
:103a640054679800240220000e024200840078006b
:103a74002e0090006c0607000002eb00140798006b
:103a8400270037003e5a90000482fb00ae029000eb
:103a940004824200240798000002eb0034079800d7
:103aa400120037003e5a90008482fb001e029000f0
:103ab40004aab900840278003e0290000482420005
:103ac400ce1a90000482420014427800e6022000dc
:103ad4000e034300be02900085024300844a78002e
:103ae4003e0290000402e800340798003e5a900019
:103af4008482fb003e029000848f5200e9ff3c0068
:103b0400e40220000e024200840078002e0090009f
:103b1400450607001e0290000402e80014079800fe
:103b24009e0290006e129000848f5200d5ff3900df
:103b340014c0b300044078004f04be000080fa00b3
:103b4400000006002400fa00101798000042eb0061
:103b540064479800680247000400780037050700ae
:103b64001e1090002102070000027800140798003c
:103b740078024700840078001e0090003706070092
:103b84007e0a900004007800d50507000e5a9000c4
:103b9400ef4f52001c003a001e5a90008402fb00b2
:103ba4002e5a90000402fb00048242004822dd00e9
:103bb4002407980014002000040f78000e0037003a
:103bc4001e5290008482fb001e02780004aab900f1
:103bd40004027800840278001e02900004824200ed
:103be400e6024700120020008500780004007800f7
:103bf40039f807001e0fe8002e0290000402e800c6
:103c04009e0f5200eeff3c006602470012002000a7
:103c1400840078001e0090002ff807001c0607009f
:103c2400044078000080fa00000006002400fa0036
:103c340000179800111798006602470004007800e6
:103c4400fe0407000e109000e8010700000278004f
:103c5400240798002e029000e10f420002003a006f
:103c64000002eb002400370076024700840078004d
:103c74002e009000f90507006e0a9000040f7800ea
:103c84000002eb00140798006e4a90008482fb0047
:103c94001e02900004aab900040278009e1290004b
:103ca40004824200840078001e0078007006070039
:103cb4001e0078001805070000027800040f780041
:103cc4001e027800e10f420007003a001e02900035
:103cd4008402e8006e4a90000482fb0004aab90042
:103ce40004027800040037001e0290000402e80079
:103cf40014079800e4ff3700040078000080fa00fd
:103d0400000006003000fa00601798007117980050
:103d14006802470004007800c80407006e10900091
:103d2400b201070000027800240798002e029000d8
:103d3400e10f420002003a000042eb004800370065
:103d440078024700840078002e009000c305070025
:103d54000e5a9000ef4f520036003a001e5a90005f
:103d64008402fb002e5a90000402fb004822dd006e
:103d7400048242003407980014002000040f7800e5
:103d8400270037001e5290008482fb001e02780038
:103d940004aab900840278002e0290000482420032
:103da400250220008e8242008500780004007800fd
:103db400aa0507000002eb00140798001200370060
:103dc4009e02e9001e5290000482fb0004aab9007e
:103dd400840278001e02900004824200fe129000c9
:103de40084824200260220000e0343001e0290003b
:103df4000402430014427800844a78001e029000b2
:103e04000402e800140798001e5290008482fb000c
:103e14001e029000848f5200e9ff3c001e0fe80050
:103e24003e0290000402e8009e0f5200d5ff3e00bf
:103e340007003700fe1290000042eb00844a78002d
:103e440078024700840078007e109000dff40700b9
:103e54007e109000e8f40700000278000442780025
:103e6400044078000080fa00000006001e00fa00fa
:103e7400600f98000e82e800040078006f040700c9
:103e84006e0890005901070000027800040f7800c2
:103e94001e027800e10f420002003a0000c2eb006b
:103ea4000500370072024700840078001e00780085
:103eb4006a0507002e5a9000044078000080fa003a
:103ec400000006002a00fa00889fbe002017980010
:103ed40031179800421798006a02470004007800de
:103ee400560407002e1090004001070000027800dd
:103ef400240798007a024700840078002e0090007e
:103f0400560507000e129000040f78004e12900020
:103f1400050020000400be0076f307000004be0084
:103f24002e5290000482fb00cfa2de000400be00eb
:103f34006df307000002be000401be000800be00cd
:103f4400b3f207000002be0034079800450798004a
:103f54003e009000ce009000a5f207000002be00d3
:103f640034079800450798000002eb0014079800f6
:103f7400110037002e5290008482fb001e02900034
:103f840004aab90004027800be1290000482420020
:103f9400840078001e0078009c0507001e0078004d
:103fa4005d04070000027800040f78001e029000f0
:103fb4000402e800140798001e029000cfa2de005d
:103fc4000400be0048f307000002be0018c0b3009e
:103fd4003e019000ce0190000400be0004f30700ef
:103fe40000027800e00f5200010035000044eb00ad
:103ff400e04f5400dfff3a004f04be000080fa0097
:10400400000006003e00fa00889fbe00501f980082
:10401400611f98007202470004007800070407003b
:104024000042eb00246798005e189000ef00070040
:104034000002780044079800440220000e02420067
:10404400840078004e009000040507004e62900042
:10405400ef4f52001d003a005e6290008402fb00a4
:104064006e6290000402fb00048242004822dd00dc
:104074005407980014002000040f78000f00370044
:104084003e5a90008482fb001e02780004aab90004
:1040940004027800840278004e02900004824200f8
:1040a400250220008e824200120020008500780044
:1040b4000400780008f707001e0fe8005e02900075
:1040c4000402e8009e0f5200edff3c002402200091
:1040d4000e02420012002000840078004e0090007e
:1040e400fdf60700ea0407009504070000027800c3
:1040f400140798001e029000e10f420002003a00eb
:104104000042eb00720037006e1890003af407008a
:1041140000027800e30f52000e003e000042eb0064
:1041240044679800440220000e024200ee189000fa
:104134000400780025f40700440220000e02420027
:10414400840078001e009000b704070014c0b30078
:104154005f003700f4c0b300446798006e18900005
:1041640025f40700000278000402e800050020009e
:104174000400be00dff207000004be003e5a9000b7
:104184000482fb00cfa2de000400be00d6f20700ca
:104194000002be000401be000800be001cf20700bd
:1041a4000002be0064079800750798006e00900036
:1041b400fe0090000ef207000002be000400be00e4
:1041c4008df207000002be00040278007417980004
:1041d400e40220000e024200040f98000e0a900030
:1041e40014427800546798000e0a90000402e80014
:1041f40014427800646798000042eb0074679800ea
:10420400440220000e024200840078001e00900048
:10421400850407000002eb002407980027003700fc
:104224003e5a90000482fb009e02900004824200e9
:10423400140798000002eb003407980012003700be
:104244003e5a90008482fb002e02900004aab9001a
:10425400840278003e02900004824200ee1a90002c
:104264000482420014427800060320000e03430037
:10427400be02900085024300844a78003e0290000a
:104284000402e800340798003e5a90008482fb0040
:104294003e029000848f5200e9ff3c00040320009a
:1042a4000e024200840078001e0090005e040700a5
:1042b4002e0290000402e80024079800ae02900049
:1042c4007e129000848f5200d5ff390014c0b300d1
:1042d400044078004f04be000080fa00000006008d
:1042e4002000fa0066024700040078005303070028
:1042f4000002eb00040f7800be0290004e02900012
:104304000482420014079800250037001e02900022
:10431400f602470085007800040078004f04070087
:104324006e529000e04f5200260032005e0a900068
:104334009e0f5200020036005e0a9000040f7800bf
:104344006e529000ef4f520010003a007e529000df
:104354008402fb000e5a90000402fb004822dd0098
:1043640004824200240798007e4a90008482fb0065
:104374002e02900004aab900840278001e02900064
:104384000482420014079800000000007e4a900056
:104394000482fb009e0290000482420014079800ed
:1043a4009e0290003e0390004e02900004034300de
:1043b4005e02900004024300848f5200d3ff390050
:1043c40001003700000000001e027800e00f5200d8
:1043d40002003a00f4ff2100010037001e027800b9
:1043e400040078000080fa00000006002200fa00b1
:1043f4000017980066024700040078000f030700c6
:104404000082eb00040f7800be0290004e02900080
:104414000482420014079800270037001e0290000f
:10442400f602470085007800040078000b040700ba
:10443400de0a90000e129000848f520003003a00ae
:104444001e029000040f7800250037006e52900081
:10445400ef4f520010003a007e5290008402fb009d
:104464000e5a90000402fb004822dd000482420040
:10447400240798007e4a90008482fb002e0290005c
:1044840004aab900840278001e029000048242004b
:1044940014079800030037006e529000e04f52005a
:1044a4000e0032007e4a90000482fb009e029000bf
:1044b40004824200140798009e0290003e0390007c
:1044c4004e029000040343005e0290000402430085
:1044d400848f5200d1ff3900010037000000000032
:1044e4001e027800040078000080fa000000060034
:1044f4000400fa0000c0200044f00700000000009f
:10450400841c80004522de00674262000482fb00b6
:10451400e30f5200faff3400815b200020002000ea
:1045240096ef0700a1ff2f003000200005f10700df
:1045340044598000cfa2de00048fbe006011b80091
:10454400012020000040eb00f7ef07006011b800e5
:10455400113e20000040eb001ef007000460200024
:10456400050020003e034200ae834a00047c200084
:104574000500200006007800070378008403780013
:1045840005027800070060000402630005002000b3
:10459400c022dd00040020000403be006102b80054
:1045a4000403730085837300423add00ce32de00db
:1045b400850272004232dd000400780004602000ad
:1045c400050020003e034200ae834a000602be00fe
:1045d400422bdd00ce23de00870373004223dd007f
:1045e40086027800f40f2000048262000402700046
:1045f40084027800c4ff2100048262006011b800c4
:104604008400780010c0b300c7ef07006011b80041
:10461400d1ff210010c0b300eeef070031002000ed
:104624000040eb0003f00700410020000040eb00d5
:10463400f8ef07003100200010c0b300fdef0700c1
:104644004100200010c0b300f2ef07003100200049
:1046540020c0b300f7ef07004100200020c0b300e2
:10466400ecef070000802a00e8ef070000000000dc
:10467400851c8000040e200004826200e00f5200ba
:10468400fbff3a000080fa00000006000400fa0074
:1046940000c0200096f00700000000008422800083
:1046a4004522de00674262000482fb00e30f5200f1
:1046b400faff3400815b200020002000e8ef0700af
:1046c400a1ff2f0030002000b2f007004459800001
:1046d400cfa2de00048fbe006011b800016020008c
:1046e4000040eb0049f007006011b80011ff210001
:1046f4000040eb0070f0070004602000050020007b
:104704003e034200ae834a00047c200005002000e2
:104714000600780007037800840378000502780017
:10472400070060000402630005002000c022dd00d1
:10473400040020000403be006102b80004037300f7
:1047440085837300423add00ce32de0085027200ba
:104754004232dd00040078000460200005002000df
:104764003e034200ae834a000602be00422bdd0037
:10477400ce23de00870373004223dd008602780027
:10478400f40f2000048262000402700084027800a6
:10479400c4ff2100048262006011b8008400780024
:1047a40010c0b30019f007006011b800d1ff210058
:1047b40010c0b30040f00700310020000040eb00bf
:1047c40055f00700410020000040eb004af00700cc
:1047d4003100200010c0b3004ff00700410020005a
:1047e40010c0b30044f007003100200020c0b30023
:1047f40049f007004100200020c0b3003ef007004c
:1048040000802a003af007000000000085228000a2
:10481400040e200004826200e00f5200fbff3a0005
:104824000080fa00000006000a00fa002007980041
:1048340031079800024f98000e4a90008482fb00d2
:1048440004ba20000482420094427800254798006c
:104854000e489000240107000e4a90008482fb0059
:104864002e4290008483fb002e0390006a2ab90034
:10487400040278000702420084024200048f2000f0
:1048840004824200060a78000002eb00040f78005c
:10489400110037000e4a90008482fb002e429000e3
:1048a4008483fb001e0278003e0390000402430050
:1048b400144378006a2ab90004027800070242000f
:1048c4004322dd009e024200048020000482420054
:1048d400064a78001e0fe8001e027800e70f520017
:1048e400ecff34000080fa00000006000a00fa0021
:1048f4002007980031079800024f98000e4a900054
:104904008482fb0094ba200004824200944278001e
:10491400254798000e489000540107000e4a900065
:104924008482fb002e4290008483fb002e039000bf
:104934006a2ab90004027800070242008402420095
:10494400c4a1200004824200060a78000002eb00a1
:10495400040f7800110037000e4a90008482fb0097
:104964002e4290008483fb001e0278003e039000d8
:1049740004024300144378006a2ab9000402780050
:10498400070242004322dd009e024200c49220003e
:1049940004824200064a78001e0fe8001e027800d6
:1049a400e70f5200ecff34000080fa00000006001c
:1049b4001000fa000002eb00040f780053003700e7
:1049c4001e02780004427800044078000a010700bf
:1049d40000427800e04f52004a003a000000000014
:1049e4001e027800044278000440780066ee070056
:1049f40000427800e04f5200f9ff3200d4b92000a1
:104a04001e02420014427800444798004e4290002f
:104a14000403fb001e0278006a22b9000402780035
:104a24000602420084024200048f200004824200f5
:104a340014027800340798000002eb001407980071
:104a4400130037004e4290000403fb001e0278005e
:104a54006a22b9000402780006024200c322dd0083
:104a64001e029000848242000480200004824200de
:104a740014427800680347009e02900085024300b8
:104a8400844a78001e0290000402e800140798008b
:104a94001e029000e70f5200eaff34001e02780065
:104aa40004427800e80347003e039000057c2000a0
:104ab40085026300452bdd00be0290004228dd0024
:104ac400f50f20008502600005037300c58f2f00d9
:104ad400050363008442780084c0b3008700780033
:104ae400825f2000030020000600780046ee0700e5
:104af4001e02780004427800044078009c000700fd
:104b040001003700000000001e0fe80094b92000e7
:104b1400144278000482fb009e0f5200a8ff3c0060
:104b24000080fa00000006001000fa000002eb000a
:104b3400040f7800530037001e0278000442780006
:104b4400044078000d01070000427800e04f520055
:104b54004a003a00000000001e0278000442780077
:104b640004407800c1ee070000427800e04f520094
:104b7400f9ff320064ba20001e0242001442780099
:104b8400444798004e4290000403fb001e02780044
:104b94006a22b9000402780006024200840242003c
:104ba400c4a1200004824200140278003407980053
:104bb4000002eb0014079800130037004e429000e7
:104bc4000403fb001e0278006a22b9000402780084
:104bd40006024200c322dd001e02900084824200cd
:104be400c492200004824200144278006803470003
:104bf4009e02900085024300844a78001e029000c1
:104c04000402e800140798001e029000e70f520007
:104c1400eaff34001e02780004427800e8034700eb
:104c24003e039000057c200085026300452bdd00d7
:104c3400be0290004228dd00f50f200085026000ce
:104c440005037300c58f2f000503630084427800b9
:104c540084c0b30087007800825f20000300200036
:104c640006007800a1ee07001e02780004427800d6
:104c7400044078009f000700010037000000000096
:104c84001e0fe80094b92000144278000482fb004f
:104c94009e0f5200a8ff3c000080fa0000000600ae
:104ca4000200fa00000f78001e0278000041eb00b9
:104cb40081c0b30004007800c4ed07000080fa004e
:104cc400000006000200fa00000f78001e027800bf
:104cd4000041eb0081c0b3000400780074ee0700cb
:104ce4000080fa00000006000200fa00004f78007d
:104cf4001e4278008482fb0004ba20000482420031
:104d0400144278000442e80006ba20008682420079
:104d1400844a78001e4278008482fb0004ba200092
:104d2400048242009442780084b92000144278003e
:104d340084cf52000c0039001e4278008482fb00ac
:104d440004ba2000848242000042eb00844a7800c6
:104d54001e4278008482fb00a4b9200084824200b1
:104d640014c0b300844a78000080fa0000000600f2
:104d74000200fa00004f78001e4278008482fb0093
:104d8400d4b9200004824200144278000442e800ae
:104d9400d6b9200086824200844a78001e427800f8
:104da4008482fb00d4b9200004824200944278003b
:104db40084b920001442780084cf52000c003900da
:104dc4001e4278008482fb00d4b920008482420011
:104dd4000042eb00844a78001e4278008482fb0083
:104de400a4b92000848242000042eb00844a780087
:104df4000080fa00000006000200fa00004f78006c
:104e04001e4278008482fb00a4b920000482420080
:104e140014427800e14f520002003a000042eb00d5
:104e24000f0037001e4278008482fb00d4b92000b2
:104e340004824200944278001e4278000483fb00fe
:104e440004ba2000040243001442780084cf5200c4
:104e5400020031000042eb000100370014c0b3002f
:104e6400044078000080fa00000006000200fa0006
:104e7400004f78001e4278008482fb0094ba200020
:104e840004824200144278000442e80096ba2000ea
:104e940086824200844a78001e4278008482fb00a5
:104ea40094ba2000048242009442780084b920001d
:104eb4001442780084cf52000c0039001e4278005e
:104ec4008482fb0094ba2000848242000042eb00fa
:104ed400844a78001e4278008482fb0034ba2000a1
:104ee4008482420014c0b300844a78000080fa002f
:104ef400000006000200fa00004f78001e4278000d
:104f04008482fb0064ba20000482420014427800c8
:104f14000442e80066ba200086824200844a78008f
:104f24001e4278008482fb0064ba2000048242009e
:104f34009442780084b920001442780084cf52004f
:104f44000c0039001e4278008482fb0064ba200001
:104f5400848242000042eb00844a78001e427800ba
:104f64008482fb0034ba2000848242000042eb00b9
:104f7400844a78000080fa00000006000200fa006b
:104f8400004f78001e4278008482fb0034ba20006f
:104f94000482420014427800e14f520002003a00b9
:104fa4000042eb000f0037001e4278008482fb00b1
:104fb40064ba200004824200944278001e427800c1
:104fc4000483fb0094ba20000402430014427800d6
:104fd40084cf5200020031000042eb000100370090
:104fe40014c0b300044078000080fa0000000600fa
:104ff4001000fa0004012000040f7800445f200030
:105004001407980004e120002407980084be2000bf
:105014003407980044c0b300044f980094c0b30010
:10502400144f9800020120008e0078000000eb006d
:1050340029f307000080fa00000006000200fa00cd
:10504400000f7800020120009e0078000000eb00b1
:1050540046f307000080fa00000006001600fa007c
:105064000002eb00140f98000042eb004457980034
:10507400dfff07000e82e80004007800efff07005e
:105084001e029000040f78000600370072024700e9
:1050940022002000840078001e0078000ef3070030
:1050a4001e8fe8009e0278001e0390002e029000de
:1050b40004024300848f5200f4ff39009e029000e2
:1050c4002e02900004824200040f7800080037008a
:1050d4007402470012002000840078001e0078004b
:1050e400fdf207003e4a90000482fb001e0f4200be
:1050f4009e0278001e0390002e02900004034300d9
:105104003e02900004024300848f5200f0ff3900f5
:105114000080fa00000006001600fa00200f980034
:105124000e82e80004007800c4ff07009e0290008d
:105134002e0a90000402420004824200048fe80018
:105144007202470022002000840078001e007800cc
:1051540006f307001e0a9000040078000080fa009d
:10516400000006001600fa00100f9800210f9800a6
:105174000e82e80004007800b0ff07009e02900051
:105184001e0a90000402420004824200048fe800d8
:105194007402470022002000840078001e0078007a
:1051a400cdf207000080fa00000006001600fa00a5
:1051b4006402470004007800a0ff07000082eb00af
:1051c400040f78002e0290000482e800140798006f
:1051d4001200370074024700220020008400780087
:1051e4001e009000e1f207002e0a9000e00f52002a
:1051f40007003a009e0290002e02900004825200a2
:105204000402d100040f78001e0fe90009003700e2
:105214001e0290000482e800140798009e02900089
:105224002e0390003e02900004024300848f52003b
:10523400e8ff39001e027800040078000080fa00bc
:10524400000006000a00fa00004f98000002eb007c
:105254002407980019003700d4ff070000027800e3
:10526400340798003e029000e10f420002003a0029
:105274003e029000170037002e029000e00f52000b
:1052840004003200be0090001e007800b5ff070045
:10529400020037003e029000140798008080eb0063
:1052a4003e009000afff07003e029000040f78001c
:1052b4002e0290000402e800240798000e4a900091
:1052c4008482fb002e029000848f5200e2ff3c0097
:1052d4001e029000040078000080fa00000006001e
:1052e4001600fa00200f98006402470004007800ba
:1052f40052ff07002e0a9000040f780001003700c7
:10530400000000001e00780083ff07000002780000
:10531400140798008000eb001e00780091ff07003e
:105324001e029000040f78001e029000e10f42005c
:10533400f3ff3a00000000000080fa0000000600bd
:105344001a00fa0066024700040078003bff0700d9
:105354000082eb00040f7800be0290004e02900021
:1053640004824200140798002300370076024700a5
:1053740032002000840078001e0090007bf20700b9
:105384006e529000ef4f520010003a007e5290008f
:105394008402fb000e5a90000402fb004822dd0048
:1053a40004824200240798007e4a90008482fb0015
:1053b4002e02900004aab900840278001e02900014
:1053c4000482420014079800060037006e529000d1
:1053d400e04f520003003a001e029000040f7800d0
:1053e4000d0037007e4a90000482fb009e0290006c
:1053f40004824200140798009e0290003e0390002d
:105404004e029000040343005e0290000402430035
:10541400848f5200d5ff39001e0278000400780002
:105424000080fa00000006001400fa00000f980043
:10543400110f98000e00780000ff07001e4a90002c
:105444000482fb00040178009e0890000e0890007e
:1054540021f207000080fa00000006001400fa00a0
:10546400000f9800110f98000e007800f3fe07005b
:105474001e4a90000482fb00040178009e089000fc
:105484000e08900039f207000080fa0000000600c0
:105494002200fa006602470004007800e7fe0700d5
:1054a4000082eb00040f78000082eb0014079800e0
:1054b4000042eb0074579800be0290004e02900028
:1054c40004824200240798001b003700760247003c
:1054d40012002000840078002e00900023f20700c0
:1054e4006e529000e04f520005003a001e02780010
:1054f400e10f420002003a002e029000040f7800ef
:105504006e529000e04f5200060032001e027800f6
:10551400e10f4200030032002e02900014079800ad
:105524000d0037007e4a90000482fb00ae0290001a
:105534000482420024079800be0290004e029000ac
:10554400848242005e029000848242002e02900017
:10555400848f5200ddff3e001e029000e10f4200e6
:105564001d003a000042eb00250037007802470096
:10557400840078001e009000b8ff07000e5a9000c7
:10558400e04f520002003a0014c0b3001c00370080
:1055940078024700840078001e007800a2ff07000c
:1055a4007702470012002000840078001e0090005b
:1055b400c9f107007e4a90000482fb009e0290001d
:1055c40004824200140798007e4a90000482fb0083
:1055d4001e0f42000100370000000000be029000d0
:1055e4004e029000848242005e0290008482420057
:1055f4001e029000848f5200dcff3e0014c0b300f2
:10560400044078000080fa00000006001600fa004a
:10561400100f9800210f98000e82e8000400780013
:1056240086fe07009e0290002e02900084824200b3
:105634003e029000048342002e4a90008482fb00c4
:105644001e0a900004aab90004027800040f430063
:105654002e4a90000482fb0004017800ae089000fa
:105664001e0078009cf107000080fa00000006008c
:105674001600fa00100f9800210f98000e82e8001f
:10568400040078006dfe07009e0290002e02900038
:10569400848242003e029000048342002e4a90001d
:1056a4008482fb001e0a900004aab9000402780058
:1056b400040f43002e4a90000482fb00040178008a
:1056c400ae0890001e007800a8f107000080fa00e0
:1056d400000006000a00fa00004f9800114f9800dd
:1056e4000e4a90000482ea00044f98000e4a90008b
:1056f40061426200144798000e4a900062426200c0
:10570400244798000e4a900064426200344798008f
:105714000e4a900068426200444798000e4a900086
:1057240070426200544798001e4a90000482ea00c6
:10573400144f98001e4a9000624f62001e4a900067
:1057440064426200644798006e429000e04f520049
:1057540036003a002e429000e04f520033003200ef
:1057640044bd200014427800e04f520008003a0083
:1057740064bd200014427800e04f52002b003a0030
:1057840074bd200014427800e04f520027003a0014
:105794003e429000e04f52000800320064bd2000f9
:1057a40014427800e04f520004003a0074bd200017
:1057b40014427800e04f520012003c0064bd200007
:1057c40014427800e04f52001800340074bd2000e9
:1057d40014427800e04f520014003a001e42780050
:1057e400e04f520007003a005e429000e04f520042
:1057f4000e00320054bd200014427800e04f5200e5
:105804000a003a0084bd200014427800e04f5200a0
:10581400060032002100200020002000e3020700df
:1058240014c0b300044f7800050037008000eb007b
:1058340020002000dd0207000042eb00044f780046
:105844001e427800e04f520036003a001e4290009b
:10585400e04f52003300320054bd2000144278005f
:10586400e04f520008003a0064bd20001442780062
:10587400e04f52002b003a0074bd2000144278001f
:10588400e04f520027003a004e429000e04f520091
:105894000800320064bd200014427800e04f52003a
:1058a40004003a0074bd200014427800e04f520016
:1058b40012003c0064bd200014427800e04f520006
:1058c4001800340074bd200014427800e04f5200e8
:1058d40014003a006e429000e04f520007003a0074
:1058e4005e429000e04f52000e00320044bd2000a2
:1058f40014427800e04f52000a003a0084bd2000b0
:1059040014427800e04f52000600320041002000ab
:1059140040002000a502070014c0b30064479800ab
:10592400050037008000eb00400020009f020700c4
:105934000042eb00644798000080fa000000060073
:105944000600fa0010079800210798009e029000b4
:10595400047820008482620004382000848f52007e
:10596400a0003a002e0290001442780004cfea000e
:10597400d4ba20001442780004407800aeebb7009b
:10598400c4ba20001442780004407800adebb7009c
:105994009e42780061c2620004407800acebb7001c
:1059a400d5ba200095427800c4ba20001442780089
:1059b40084cf520006003200c5ba20009542780018
:1059c400e4ba20001442780084cf520005003a0063
:1059d400c4ba20001442780004407800d4ebb70025
:1059e4000a003700e5ba200095427800d4ba2000b6
:1059f4001442780084cf520004003a00d4ba200044
:105a04001442780004407800d4ebb70004bb2000b3
:105a14001442780004407800b1ebb700f4ba2000d7
:105a24001442780004407800b0ebb7009e4278003e
:105a340062c2620004407800afebb70005bb2000ef
:105a440095427800f4ba20001442780084cf5200c2
:105a540006003200f5ba20009542780014bb2000fd
:105a64001442780084cf520005003a00f4ba2000b2
:105a74001442780004407800d5ebb7000a003700e0
:105a840015bb20009542780004bb20001442780026
:105a940084cf520004003a0004bb20001442780072
:105aa40004407800d5ebb70034bb200014427800e2
:105ab40004407800b4ebb70024bb20001442780003
